:04000000020059326F
:01000B0032C2
:0100130032BA
:01001B0032B2
:0100230032AA
:03002B0002027B53
:030033000201B215
:01003B003292
:03004300023F0079
:01004B003282
:03005300023F0069
:1C00B200750800750900750A02750B00750CF4750D01750EF4750F01C200C201BD
:0300E000020056C5
:0300560002082A73
:2000E300E582FF30E00543B108800353B1F7EF30E40543B101800353B1FE75820122E58205
:20010300FF70407E0EE4FDFC7401B54C02801C7402B54C0280197405B54C028016740AB559
:200123004C0280137414B54C1680107B0280647B0680607B00805C7B0480587B0880547570
:20014300820022BF01497E307D027401B54C02801C7402B54C02801B7405B54C02801A7410
:200163000AB54C0280197414B54C2080187B007C0280207B107C02801A7B007C0080147B53
:20018300107C00800E7B207C0080087582002275820022EEF4FFE5A05207EE5B4FF5A0ED98
:2001A300F4FFE5B15207ED5C4FF5B175820122C2DC32C0E0C082C083D2005391EF90E65D95
:2001C3007401F0D083D082D0E032C021C0E0C0F0C082C083C007C006C005C004C003C002DF
:2001E300C001C000C0D075D0007582001213485391EF90E65D7410F0D0D0D000D001D00215
:20020300D003D004D005D006D007D083D082D0F0D0E0D02132C021C0E0C0F0C082C083C004
:2002230007C006C005C004C003C002C001C000C0D075D0007582011213485391EF90E65D7F
:200243007420F0D0D0D000D001D002D003D004D005D006D007D083D082D0F0D0E0D02132A3
:20026300C0E0C082C083D2015391EF90E65D7408F0D083D082D0E032C007C006C0D075D088
:2002830000AEB16306048EB1C2CFD0D0D006D00732850A4C754D00905DC012170BAE82AFE3
:2002A30083AC097D00C3EC9EED64808FF063F08095F0400990E640E053E07FF02290E64038
:2002C300E043E080F02285820A7401B50A0280057402B50A18AF0A74072FF50B90E618F08C
:2002E30090E61AE50BF0120294758201227582002290E6F574FFF000000000E5BB30E7FB30
:2003030090E6047480F00000000090E618E4F00000000090E61AE4F00000000090E60474C8
:2003230002F00000000090E6047406F00000000090E618E50BF00000000090E61AE50BF006
:200343000000000090E604E4F02290E6F574FFF000000000E50870057E06FF80047E027FF4
:200363000090E648EEF022D2871202F47EE87F03EE24FFFCEF34FFFD8C068D07EC4D70F088
:20038300E5BB30E7FB0000000090E6D07428F00000000090E6D1E4F0E50870057E06FF8056
:2003A300047E047F008EBB22AF8290E680E030E7067D1C7E3D80047DA67E3DEF75F010A4E8
:2003C3002416FBE435F0FCEB2DFDEC3EFC7E80EFF508703590E612E4F090E61474E0F0905C
:2003E300E6E27401F08D828C838EF01216EE90E625F074012DFAE43CFB8E078A828B838F9B
:20040300F01216EE90E624F02290E61274D8F090E614E4F090E6D204F08D828C838EF0121B
:2004230016EE90E621F00DBD00010C8D828C838EF01216EEFF90E62074075FF08D828C8328
:200443008EF01216EEC423541F90E64004F0020294AF827E00EE75F005A4FCADF024B7F555
:2004630082ED341AF583E493FBB5070280080EBE16E375820022EC24B7FCED341AFD8C82A5
:200483008D83A3A3A3A3E49390E601F08C828D83A3E493FDA3E493FEA3E493FF75AF0775D9
:2004A3009DE4759E007C208C031CEB60168D828E838FF01216EEFBA3AD82AE8390E67CEB6D
:2004C300F080E47F608F061FEE600790E67CE4F080F375820122E582FF70087B64FCFDFED6
:2004E300020566EF249B401D8F4C754D00754E00754F009003E8E4F5F0121488AB82AC830F
:20050300ADF0FE805EBF670A7B207C007D007E008051EF243740288F017A00E9249CF9EA04
:2005230034FF894CF54D3395E0F54EF54F90000AE4F5F0121488AB82AC83ADF0FE80247A19
:2005430000EF2438FFEA34FF8F4CF54D3395E0F54EF54F900064E4F5F0121488AB82AC831E
:20056300ADF0FEC3EB9420EC9400ED9400EE64809480401474A09B74869C74019D74808E67
:20058300F063F08095F0500475820022754C02E4F54DF54EF54F8B828C838DF0EEC006C026
:2005A30005C004C003121526A882A983D003D004D005D006880C890D8B828C838DF0EE12F4
:2005C3000F6BAC82AD83AEF0FFC004C005C006C00790240075F0F474C912162BAC82AD8392
:2005E300AEF0FFE58124FCF5818C828D838EF0EF120F98AC82AD838CCA8DCB75820122AD48
:200603004CAE4DAF4E8D828E838FF0E50812146A75820122E58270068510821203AB7582B2
:200623000122758200227582012290E6BBE0FE7F0090E6BAE07C004207EC420690E6BFE0B5
:20064300FC7D0090E6BEE07A004205EA420490E6A0E020E1F990E6B8E0FBBB40028073BB75
:20066300C002800302072EED4C7003020732C374409DE49C50067A407B0080048D028C0353
:2006830090E6A0E020E1F98A457546007547407548E77549008F438E44758251C007C00606
:2006A300C005C004C002120EA2D002D004D005D006D00790E68AE4F00000000090E68BEA43
:2006C300F07B00EDC39AFDEC9BFCEA2FFFEB3EFE8095ED4C605990E68BE4F090E6A0E020B1
:2006E300E1F990E68BE0FB8B38753900753A40753BE7753C008F368E37758251C007C0063A
:20070300C005C004C003120E0DE582D003D004D005D006D0077003F582227A00EB2FFFEA44
:200723003EFEEDC39BFDEC9AFC80A7758200227582012275820022AF82C00712034DD0070C
:2007430000850C0E850D0FBFE0004015EF2419401090E68AE4F090E68BF090E6A0E020E12A
:20076300F9BFA2028023BFE0028021BFE1028028BFE202802FBFE3028033BFE4028043BF1B
:20078300E5028047BFE656804B02062D90E740E0F54C75820002010190E740E0F54C75820B
:2007A3000102010190E740E0F58202045490E740E0FFBF010900E4F50EF50F12036A758209
:2007C300012290E740E0F5820202C990E740E0F5820200E390E740E0F5820204D975820041
:2007E3002290E613E4F090E615F0D28790E6C2E4F090E6C37480F090E6C0E4F090E6F4F016
:2008030012034D754C01758200120101754C01758201120101758201120454758202120269
:20082300C97582000203AB90E600E054E74410F01209281207E4D2E890E668E043E008F09D
:2008430090E65CE043E001F090E65CE043E010F090E65CE043E020F090E65CE043E008F048
:20086300D2DDD2AF75CA3075CBF875C800D2ADD2CA90E680E043E00AF09005DC12158590A6
:20088300E680E053E0F7F090E672E4F090E671F090E670F075B109F5A0F58075B6FF75B400
:2008A300FF75B2FF001000028003120FF310010280F390E682E043E0C0F090E6817401F0DA
:2008C30043870100000000000000E513701C90E682E030E60790E682E020E0D690E682E04B
:2008E30030E70790E682E020E1C890E682E030E60790E682E020E00E90E682E030E7A69036
:20090300E682E030E19F90000512158590E680E043E001F090000F12158590E680E053E05D
:20092300FEF00208A87E087F3E754C30754D31754E32754F33755034755135755236755348
:2009430037755438755539755641755742755843755944755A45755B4674182EFCE43FFD1D
:2009630090E507E0FB5303F0E4C4CBC4540F6BCB540FCB6BCB30E30244F0EB244CF987037C
:200983008C828D83EBF074162EFCE43FFD90E507E0FB53030FEB244CF987038C828D83EBE4
:2009A300F074142EFCE43FFD90E508E0FB5303F0E4C4CBC4540F6BCB540FCB6BCB30E3028B
:2009C30044F0EB244CF987038C828D83EBF074122EFCE43FFD90E508E0FB53030FEB244C21
:2009E300F987038C828D83EBF074102EFCE43FFD90E509E0FB5303F0E4C4CBC4540F6BCB3B
:200A0300540FCB6BCB30E30244F0EB244CF987038C828D83EBF0740E2EFCE43FFD90E50905
:200A2300E0FB53030FEB244CF987038C828D83EBF0740C2EFCE43FFD90E50AE0FB5303F032
:200A4300E4C4CBC4540F6BCB540FCB6BCB30E30244F0EB244CF987038C828D83EBF0740AC1
:200A63002EFCE43FFD90E50AE0FB53030FEB244CF987038C828D83EBF074082EFCE43FFDCD
:200A830090E50BE0FB5303F0E4C4CBC4540F6BCB540FCB6BCB30E30244F0EB244CF9870357
:200AA3008C828D83EBF074062EFCE43FFD90E50BE0FB53030FEB244CF987038C828D83EBCF
:200AC300F074042EFCE43FFD90E50CE0FB5303F0E4C4CBC4540F6BCB540FCB6BCB30E30276
:200AE30044F0EB244CF987038C828D83EBF074022EFEE43FFF90E50CE0FD53050FED244C02
:0A0B0300F987058E828F83EDF02242
:2017F7000F0E000000000000020001000000000050555500000000000000000000000000B8
:201817000101000000000000020001000000000050555500000000000000000000000000B2
:20183700FAFAFAFAFAF9000002000000000001005055555555555500000000000000000065
:20185700FAFAF9000000000002000001000000005055555500000000000000000000000032
:20187700C8C8C70000000000020000010000000050555555000000000000000000000000A8
:20189700FAFAF90000000000020000010000000050555555000000000000000000000000F2
:2018B7009695000000000000020001000000000050555500000000000000000000000000E9
:2018D7000201000000000000020001000000000050555500000000000000000000000000F1
:2018F7004B4A0000000000000200010000000000505555000000000000000000000000003F
:20191700252500000000000002000100000000005055550000000000000000000000000069
:201937000100000000000000020100000000000050550000000000000000000000000000E7
:201957001E1D00000000000002000100000000005055550000000000000000000000000038
:20197700010100000000000002000100000000005055550000000000000000000000000051
:20199700070700000000000002000100000000005055550000000000000000000000000025
:2019B700010000000000000002010000000000005055000000000000000000000000000067
:2019D7000504000000000000020001000000000050555500000000000000000000000000EA
:2019F70080000000000000000300000000000000000000000000000000000000000000004D
:201A17000605000000000000020001000000000050555500000000000000000000000000A7
:201A370080000000000000000300000000000000000000000000000000000000000000000C
:201A570003020000000000000200010000000000505555000000000000000000000000006D
:201A770002020000000000000200010000000000505555000000000000000000000000004E
:201A970003020000000000000200010000000000505555000000000000000000000000002D
:201AB70030371A80EA1EF71980AA18B71980CA10771980CA0F3719808A0CD71880CA0A17E1
:201AD70018808A08971A80CA06771A808A05571A808A04171A80CA03D719808A02971980FB
:201AF7008A01F717808A965719808A8C1719808A78F718808A6EB718808A6A971880CA69B2
:0E1B17007718808A685718808A663718808A87
:203D000012010002FFFFFF40B50420010902010203010A060002000000400100090289007E
:203D200001010080FA0904000001FF000000070586020002000904000101FF000100070549
:203D400082010014010904000201FF00010007058201000C010904000301FF000100070502
:203D600082010004010904000401FF000100070582010004020904000501FF0001000705F5
:203D800082010004030904000601FF000100070582010004040904000701FF0001000705CD
:053DA000820100020495
:203DA6000902390002010080FA0904000001FF000000070586024000000904000101FF004D
:193DC600010007058201FF03010904000201FF00010007058201000201AF
:203DE0000403090416034F00700065006E00480061006E00740065006B000E034400440010
:203E000053003100320030001A03300030003000300030003000300030003000300030008F
:043E2000300000006E
:200B0D0085822CE5272522FDE5283523FE752D02903C00E4F0903C00E060047582002290E5
:200B2D00E678E0FB7A0043038090E678EBF0E030E21090000AC006C005121585D005D006E8
:200B4D0080D3E52C25E0FB90E679F090E678E020E006903C00E060F3903C00E0600475826B
:200B6D00002290E678E020E2AC90E678E020E14090E678E0FB43034090E678EBF090E678B5
:200B8D00E030E606903C00E060F3903C00E0600475820022E52D14FB8B2D7003F5822290AF
:200BAD00000AC006C005121585D005D006020B227A007B00C3EA9DEB9E4003020C57C3EAF0
:200BCD009522EB95235016EA2524F8EB3525F9AC26888289838CF01216EEFC801DEAC3958A
:200BED0022F8EB9523F9E82529F8E9352AF9AF2B888289838FF01216EEFC90E679ECF00A6D
:200C0D00BA00010B90E678E020E006903C00E060F3903C00E060047582002290E678E03007
:200C2D00E203020B2290E678E020E18890E678E0FF43074090E678EFF090E678E030E6062E
:200C4D00903C00E060F37582002290E678E0FF43074090E678EFF090E678E030E606903C95
:200C6D0000E060F3903C00E060047582002275820122858233903C00E4F004B52E0814B55F
:200C8D002F0474018001E4FE903C00E06004758200227C007D0090E678E0FB43038090E615
:200CAD0078EBF0E030E20C90000AC006121585D00680D5E53325E0FB3395E0FA430301900E
:200CCD00E679EBF090E678E020E006903C00E060F3903C00E060047582002290E678E020E3
:200CED00E2A690E678E020E11E90E678E0FB43034090E678EBF090E678E030E606903C00A4
:200D0D00E060F375820022EE600F90E678E0FB7A0043032090E678EBF090E679E0E4F534CF
:200D2D00F53574012534F8E43535F9C3E8952EE9952F506C90E678E020E006903C00E060B8
:200D4D00F3903C00E060047582002290E678E030E203020C9574022534F8E43535F9E8B539
:200D6D002E13E9B52F0F90E678E0F8790043002090E678E8F0A834A9350534E4B53402051A
:200D8D0035AC34AD35E82530F8E93531F9AF3290E679E0FB888289838FF012146A020D2FC4
:200DAD0090E678E020E006903C00E060F3903C00E060047582002290E678E030E203020C39
:200DCD009590E678E0FF43074090E678EFF0EC2530FCED3531FDAF3290E679E08C828D83F2
:200DED008FF012146A90E678E030E606903C00E060F3903C00E060047582002275820122AB
:200E0D0085823DE4F541F542AB36AC37C3E5419538E54295394003020E9E7A0090E678E088
:200E2D0030E4067A018C078F3EEA04FFEA243EF98B02A702EF04FAEF243EF9AE41AF42052C
:200E4D0041E4B541020542EE253AFEEF353BFFAD3C8E828F838DF01216EEF78A227523009F
:200E6D0075243E752500752640E4F527F528F529F52AF52B853D82C004C003120B0DE58243
:200E8D00D003D0047003F582220BBB00010C020E1975820122AF827E0090E678E030E406E5
:200EAD007E01AD448D4AEE04FDEE244AF9AE43A7068D2275230075244A752500752640E479
:200ECD00F527F528F529F52AF52B8F82C007120B0DE582D0077003F5822285452E85462F31
:190EED008547308548318549328F82120C7FE5827003F5822275820122B7
:200F0600FB7A20E4FCFDFEFFE5822582F582E58333F583E5F033F5F0EB33FB4017DAE98024
:200F260042E5822582F582E58333F583E5F033F5F0EB33FBEC33FCED33FDEE33FEEF33FF53
:200F4600EC954CED954DEE954EEF954F4013EC954CFCED954DFDEE954EFEEF954FFF4382FD
:050F660001DABEEB22E0
:06008800E478FFF6D8FD4C
:200F6B00FCABF0AA83A982749EF582C2D1EC30E716D2D1E9F42401F9EAF43400FAEBF43485
:0D0F8B0000FBECF43400FC1217BC0215DB77
:200F9800121458C3749E95824039790012177930D126E9F42401F582EAF43400F583EBF432
:200FB8003400F5F0ECF43400700AE582458345F0700122E430E70F22EC20E71489828A8330
:1B0FD8008BF02230D10AE4F582F583F5F074802274FFF582F583F5F0747F222C
:1200CE007512007513007514A675153D75161C75173DAB
:200FF30090E6B9E0FF24F45003021121EF240A83F582EF241083F583E4732541215D21217F
:20101300792189A0C2FC1010111011111011101010101211A3E582600302113D90E6A0E0A2
:20103300FF7E0043070190E6A0EFF002113D121237E582600302113D90E6A0E0FF7E004365
:20105300070190E6A0EFF002113D1212B2E582600302113D90E6A0E0FF7E0043070190E60C
:20107300A0EFF002113D120736E582600302113D12137302113D120625AF8290E740EFF039
:2010930090E68AE4F090E68B04F002113D90E6BAE0F582120629E582600302113D90E6A02C
:2010B300E0FF7E0043070190E6A0EFF002113D90E6BCE0FF754C11754D00754E408F821265
:2010D3000602E582701190E6A0E0FF7E0043070190E6A0EFF0805390E740E511F090E68AEA
:2010F300E4F090E68B04F0804190E6BCE0FF90E6BAE0F5108F82120617E582702D90E6A0D3
:20111300E0FF7E0043070190E6A0EFF0801C90E6B9E0F58212073AE582700F90E6A0E0FFCF
:201133007E0043070190E6A0EFF090E6A0E0FF43078090E6A0EFF022AF82747F5FFE24F76C
:20115300500302119FEE240A83F582EE240D83F583E473787C8F9F939F979F9B1111111187
:20117300111111111190E6A022EF30E7067EA27FE680047EA17FE68E828F832290E6A322B7
:2011930090E6A42290E6A52290E6A6229000002290E6B8E0FFBF80028022BF81028008BF5A
:2011B3008202803702122F90E740E4F090E741F090E68AF090E68B7402F08064E51325E033
:2011D300FFE512420790E740EFF090E741E4F090E68AF090E68B7402F0804590E6BCE0F578
:2011F3008212114BAE82AF838E048F05EE4F7003F582228C828D83E0FC30E0067E017F000D
:2012130080047E007F0090E740EEF090E741E4F090E68AF090E68B7402F080047582002225
:201233007582012290E6B8E0FF6005BF0264801B90E6BAE0FFBF0105751300805E90E6BAE5
:20125300E0FFBF060280547582002290E6BAE0703D90E6BCE0F58212114BAE82AF83E0FDF5
:201273005305FE8E828F83EDF090E6BCE0FF30E7098F057E004305108D0753071F90E68365
:20129300EFF07E0043072090E683EFF0800D7582002290E6B9E0F58202073A758201229083
:2012B300E6B8E0FF6008BF0202802902133B90E6BAE0FFBF020302134490E6BAE0FFBF017F
:2012D30005751301806B90E6BAE0FFBF060280617582002290E6BAE0704A90E6BCE0F5825F
:2012F30012114BAE82AF83EE4F7003F582228E828F83E0FD7C004305018E828F83EDF0906F
:20131300E6BCE0FF30E7098F057E004305108D0753071F90E683EFF07E0043072090E683E9
:20133300EFF0800D7582002290E6B9E0F58202073A75820122AF827E0110AF027E00EF60F4
:201353000E75141C75153D7516A675173D800C7514A675153D75161C75173DEE1392AF22B0
:2013730090E6BBE0FFBF01028019BF02028024BF0302802CBF060302142DBF070302143DF1
:2013930002144A7E007F3D90E6B3EFF090E6B47400F02290E6B3E515F090E6B4E514F022A0
:2013B3007DE07E3D7F8090E6BAE0F54C7B008B020BEAB54C0280428D008E018F028D828EA6
:2013D300838FF01216EE28F8E439F9880589068A0774012DF9E43EFA8F0489828A838CF021
:2013F3001216EEF9B9030280067D007E007F00ED4E6006C3E54C9B50B5ED4E600F8D038E10
:201413000490E6B3ECF090E6B4EDF02290E6A0E0FF43070190E6A0EFF0227E127F3D90E66E
:20143300B3EFF090E6B47412F02290E6B3E517F090E6B4E516F02290E6A0E0FF4307019029
:05145300E6A0EFF0220D
:200066007900E94400601B7A00901B25780175923CE493F2A308B800020592D9F4DAF275E0
:0200860092FFE7
:12145800AA82AB83A2F73392D1F5826002D2F7ACF02299
:1B146A0020F71130F6138883A88220F509F6A8837583002280FEF280F5F02281
:203F00000201B5000217F50002174600020263000201CD000202180002174300021579003D
:203F200002157B0002157C0002157D00021580000217F4000217F6000214850002148700DD
:203F4000021748000215790002170A0002174400021745000217470002174900021778003F
:203F600002162A0002157900021579000215790002157A0002157E000215810002158300F7
:203F800002157F0002158200021584000215DA000214F600021521000215230002152500AC
:183FA0000214F700021522000215240002157800021486000217F30051
:011485003234
:011486003233
:011487003232
:20148800AAF0FBE582854CF0A4FCADF0E583854CF0A42DFDE435F0FEE582854DF0A42DFD55
:2014A800E5F03EFEE433FFEA854CF0A42EFEE5F03FFFE583854DF0A42EFEE5F03FFFE582FB
:2014C800854EF0A42EFEE5F03FFFEB854CF0A42FFFEA854DF0A42FFFE583854EF0A42FFF65
:0E14E800E582854FF0A42F8EF08D838C82223A
:0114F60032C3
:0114F70032C2
:20008E007800E84400600A790075923CE4F309D8FC7801E84400600C7901903C00E4F0A306
:0400AE00D8FCD9FAA7
:2014F8007A10E4FBFCE58225E0F582E58333F583EB33FBEC33FCEB954CF5F0EC954D400680
:09151800FCABF0438201DADD2294
:011521003297
:011522003296
:011523003295
:011524003294
:011525003293
:20152600FBC2D530E715D2D5E4C39582F582E49583F583E495F0F5F0E49BFBE54F30E7176D
:20154600B2D5E4C3954CF54CE4954DF54DE4954EF54EE4954FF54FEB120F0630D513FBE40E
:12156600C39582F582E49583F583E495F0F5F0E49B22BF
:011578003240
:01157900323F
:01157A00323E
:01157B00323D
:01157C00323C
:01157D00323B
:01157E00323A
:01157F003239
:011580003238
:011581003237
:011582003236
:011583003235
:011584003234
:20158500AE82AF8390E600E05418C423541F70057CB1FD801C90E600E05418C423541FFB76
:2015A500BB01067A617B0180047AC27B028A048B058C4C8D4D154C74FFB54C02154DE54C96
:1515C500454D70F1EE24FFFAEF34FFFB8A068B07EA4B70DD2230
:0115DA0032DE
:2015DB00B98003EA13B34010EA2401FAE43BFBE43CFC50047C800582BC000EBB000BBA0054
:2015FB0008E4F5F0F583F58222A2D1E582138CF092F78B838A8222E4F583F58275F080F414
:0F161B00A2D11322E4F583F58275F0C0747F220B
:01162A00328D
:20162B0012174A30D502B2D1BF0009BC000302161F021612BC00030215FCE583B4FF0BE5DD
:20164B0082B4FF0302161F0215FCE582B4FF03021612C395835007247F400B0215FC2480DF
:20166B00145003021612F582C3ED9AEE9BEF9C40111582C3EA33F9EB33FAEC33FBE433FCF3
:20168B008005E4CCCBCAF9C08275F019C3E99DEA9EEB9FEC9400D5F002802D400EE99DF9A0
:2016AB00EA9EFAEB9FFBEC9400FCC3B3E833F8E58233F582E58333F583C3E933F9EA33FA00
:2016CB00EB33FBEC33FC80C4B3E4F938FAE43582FBE43583FCD082500405827C801217BC89
:0316EB000215F3F2
:0D00590075815B1217EFE58260030200560F
:1C16EE0020F71430F6148883A88220F507E6A88375830022E280F7E49322E0220B
:01170A0032AC
:20170B00C2D5E58330E70DD2D5E4C39582F582E49583F583E54D30E70DB2D5E4C3954CF5F1
:18172B004CE4954DF54D1214F830D50BE4C39582F582E49583F5832259
:011743003273
:011744003272
:011745003271
:011746003270
:01174700326F
:01174800326E
:01174900326D
:20174A00AA82AB83A2F73392D1F5826002D2F7ACF0E58124F9F8E6FD08E6FE0886F008E602
:0E176A00A2F73392D5F5836002D2F7AFF022DA
:01177800323E
:201779006040F82582500274FFF582E824F8501ECCCBCAF9E4CC24F85014CBCAF9E4CB2478
:20179900F8500BCAF9E4CA24F8500379002224086010F8C3EC13FCEB13FBEA13FAE913F92B
:0317B900D8F12242
:2017BC007804EC7011E58224F8500AF582E4C9CACBFCD8EF22EC7820058220E713D582012C
:1317DC0022C3E933F9EA33FAEB33FBEC33FCD8EA1582223A
:0417EF0075820022DD
:0117F30032C3
:0117F40032C2
:0117F50032C1
:0117F60032C0
:00000001FF
