:04000000020059326F
:01000B0032C2
:0100130032BA
:01001B0032B2
:0100230032AA
:03002B0002028747
:030033000201BE09
:01003B003292
:03004300023F0079
:01004B003282
:03005300023F0069
:1C00B200750800750900750A02750B00750CF4750D01750EF4750F01C200C201BD
:0300E000020056C5
:030056000208009D
:2000E300E582FF30E00BADB17E004305088DB1800353B1F7EF30E40BAEB17F004306018ED0
:20010300B1800353B1FE75820122E582FF70407E0EE4FDFC7401B54C02801C7402B54C0280
:2001230080197405B54C028016740AB54C0280137414B54C1680107B0280647B0680607B91
:2001430000805C7B0480587B08805475820022BF01497E307D027401B54C02801C7402B584
:200163004C02801B7405B54C02801A740AB54C0280197414B54C2080187B007C0280207B0E
:20018300107C02801A7B007C0080147B107C00800E7B207C0080087582002275820022EE55
:2001A300F4FFE5A05207EE5B4FF5A0EDF4FFE5B15207ED5C4FF5B175820122C2DC32C0E0A7
:2001C300C082C083D2005391EF90E65D7401F0D083D082D0E032C021C0E0C0F0C082C0837D
:2001E300C007C006C005C004C003C002C001C000C0D075D0007582001213395391EF90E66D
:200203005D7410F0D0D0D000D001D002D003D004D005D006D007D083D082D0F0D0E0D021C8
:2002230032C021C0E0C0F0C082C083C007C006C005C004C003C002C001C000C0D075D000E2
:200243007582011213395391EF90E65D7420F0D0D0D000D001D002D003D004D005D006D0E6
:2002630007D083D082D0F0D0E0D02132C0E0C082C083D2015391EF90E65D7408F0D083D00F
:2002830082D0E032C007C006C0D075D000AEB16306048EB1C2CFD0D0D006D00732850A4C9F
:2002A300754D00905DC01216FCAE82AF83AC097D00C3EC9EED64808FF063F08095F04009D6
:2002C30090E640E053E07FF02290E640E0FF43078090E640EFF02285820A7401B50A0280E4
:2002E300057402B50A18AF0A74072FF50B90E618F090E61AE50BF01202A075820122758293
:20030300002290E6F574FFF000000000E5BB30E7FB90E6047480F00000000090E618E4F078
:200323000000000090E61AE4F00000000090E6047402F00000000090E6047406F000000092
:200343000090E618E50BF00000000090E61AE50BF00000000090E604E4F02290E6F574FF6E
:20036300F000000000E50870057E06FF80047E027F0090E648EEF022D2871203057EE87F0C
:2003830003EE24FFFCEF34FFFD8C068D07EC4D70F0E5BB30E7FB0000000090E6D07428F0E8
:2003A3000000000090E6D1E4F0E50870057E06FF80047E047F008EBB22AF8290E680E03013
:2003C300E7067D1C7E3D80047DA67E3DEF75F010A42416FBE435F0FCEB2DFDEC3EFC7E80FC
:2003E300EFF508703590E612E4F090E61474E0F090E6E27401F08D828C838EF01216DF904F
:20040300E625F074012DFAE43CFB8E078A828B838FF01216DF90E624F02290E61274D8F082
:2004230090E614E4F090E6D204F08D828C838EF01216DF90E621F00DBD00010C8D828C8300
:200443008EF01216DFFF90E62074075FF08D828C838EF01216DFC423541F90E64004F0020C
:2004630002A0AF827E00EE75F005A4FCADF024A8F582ED341AF583E493FBB5070280080ED7
:20048300BE16E375820022EC24A8FCED341AFD8C828D83A3A3A3A3E49390E601F08C828D7A
:2004A30083A3E493FDA3E493FEA3E493FF75AF07759DE4759E007C208C031CEB60168D8283
:2004C3008E838FF01216DFFBA3AD82AE8390E67CEBF080E47F608F061FEE600790E67CE495
:2004E300F080F375820122E582FF70077B64FCFDFE8046EF249B401D8F4C754D00754E0098
:20050300754F009003E8E4F5F0121479AB82AC83ADF0FE80247A00EF249CFFEA34FF8F4C76
:20052300F54D3395E0F54EF54F90000AE4F5F0121479AB82AC83ADF0FEC3EB9428EC940064
:20054300ED9400EE64809480401474A09B74869C74019D74808EF063F08095F05004758271
:200563000022754C02E4F54DF54EF54F8B828C838DF0EEC006C005C004C003121517A882E5
:20058300A983D003D004D005D006880C890D8B828C838DF0EE120F5CAC82AD83AEF0FFC0F1
:2005A30004C005C006C00790240075F0F474C912161CAC82AD83AEF0FFE58124FCF5818CD1
:2005C300828D838EF0EF120F89AC82AD838CCA8DCB75820122AD4CAE4DAF4E8D828E838FA9
:2005E300F0E50812145B75820122E58270068510821203BC7582012275820022758201226E
:2006030090E6BBE0FE7F0090E6BAE07C004207EC420690E6BFE0FC7D0090E6BEE07A0042E2
:2006230005EA420490E6A0E020E1F990E6B8E0FBBB40028073BBC0028003020704ED4C70E3
:2006430003020708C374409DE49C50067A407B0080048D028C0390E6A0E020E1F98A45758E
:2006630046007547407548E77549008F438E44758251C007C006C005C004C002120E93D08C
:2006830002D004D005D006D00790E68AE4F00000000090E68BEAF07B00EDC39AFDEC9BFC0B
:2006A300EA2FFFEB3EFE8095ED4C605990E68BE4F090E6A0E020E1F990E68BE0FB8B387518
:2006C3003900753A40753BE7753C008F368E37758251C007C006C005C004C003120DFEE5FA
:2006E30082D003D004D005D006D0077003F582227A00EB2FFFEA3EFEEDC39BFDEC9AFC803D
:20070300A7758200227582012275820022AF82C00712035ED00700850C0E850D0FBFE000C2
:200723004015EF2419401090E68AE4F090E68BF090E6A0E020E1F9BFA2028023BFE0028009
:2007430021BFE1028028BFE202802FBFE3028033BFE4028043BFE5028047BFE656804B02E5
:20076300060390E740E0F54C75820002010D90E740E0F54C75820102010D90E740E0F582A0
:2007830002046590E740E0FFBF010900E4F50EF50F12037B7582012290E740E0F5820202E5
:2007A300DA90E740E0F5820200E390E740E0F5820204EA7582002290E613E4F090E615F07A
:2007C300D28790E6C2E4F090E6C37480F090E6C0E4F090E6F4F012035E754C0175820012F2
:2007E300010D754C0175820112010D7582011204657582021202DA7582000203BC90E60086
:20080300E054E74410F01209191207BAD2E890E668E0FF43070890E668EFF090E65CE0FF38
:2008230043070190E65CEFF0E0FF43071090E65CEFF0E0FF43072090E65CEFF0E0FF4307AC
:200843000890E65CEFF0D2DDD2AF75CA3075CBF875C800D2ADD2CA90E680E043E00AF0902A
:2008630005DC12157690E680E053E0F7F090E672E4F090E671F090E670F075B109F5A0F5E5
:200883008075B6FF75B4FF75B2FF001000028003120FE410010280F390E682E043E0C0F092
:2008A30090E6817401F0AE877F004306018E8700000000000000E513701C90E682E030E654
:2008C3000790E682E020E0D090E682E030E70790E682E020E1C290E682E030E60790E682E8
:2008E300E020E00E90E682E030E7A090E682E030E19990000512157690E680E0FF430701A4
:2009030090E680EFF090000F12157690E680E053E0FEF002088E7E087F3E754C30754D310D
:20092300754E32754F337550347551357552367553377554387555397556417557427558ED
:2009430043755944755A45755B4674182EFCE43FFD90E507E0FB5303F0E4C4CBC4540F6B9D
:20096300CB540FCB6BCB30E30244F0EB244CF987038C828D83EBF074162EFCE43FFD90E5DC
:2009830007E0FB53030FEB244CF987038C828D83EBF074142EFCE43FFD90E508E0FB5303B6
:2009A300F0E4C4CBC4540F6BCB540FCB6BCB30E30244F0EB244CF987038C828D83EBF0747C
:2009C300122EFCE43FFD90E508E0FB53030FEB244CF987038C828D83EBF074102EFCE43F53
:2009E300FD90E509E0FB5303F0E4C4CBC4540F6BCB540FCB6BCB30E30244F0EB244CF98700
:200A0300038C828D83EBF0740E2EFCE43FFD90E509E0FB53030FEB244CF987038C828D8351
:200A2300EBF0740C2EFCE43FFD90E50AE0FB5303F0E4C4CBC4540F6BCB540FCB6BCB30E327
:200A43000244F0EB244CF987038C828D83EBF0740A2EFCE43FFD90E50AE0FB53030FEB24F0
:200A63004CF987038C828D83EBF074082EFCE43FFD90E50BE0FB5303F0E4C4CBC4540F6B3F
:200A8300CB540FCB6BCB30E30244F0EB244CF987038C828D83EBF074062EFCE43FFD90E5CB
:200AA3000BE0FB53030FEB244CF987038C828D83EBF074042EFCE43FFD90E50CE0FB53039D
:200AC300F0E4C4CBC4540F6BCB540FCB6BCB30E30244F0EB244CF987038C828D83EBF0745B
:1B0AE300022EFEE43FFF90E50CE0FD53050FED244CF987058E828F83EDF022E0
:2017E8000F0E000000000000020001000000000050555500000000000000000000000000C7
:201808000101000000000000020001000000000050555500000000000000000000000000C1
:20182800FAFAFAFAFAF9000002000000000001005055555555555500000000000000000074
:20184800FAFAF9000000000002000001000000005055555500000000000000000000000041
:20186800C8C8C70000000000020000010000000050555555000000000000000000000000B7
:20188800FAFAF9000000000002000001000000005055555500000000000000000000000001
:2018A8009695000000000000020001000000000050555500000000000000000000000000F8
:2018C800020100000000000002000100000000005055550000000000000000000000000000
:2018E8004B4A0000000000000200010000000000505555000000000000000000000000004E
:20190800252500000000000002000100000000005055550000000000000000000000000078
:201928000100000000000000020100000000000050550000000000000000000000000000F6
:201948001E1D00000000000002000100000000005055550000000000000000000000000047
:20196800010100000000000002000100000000005055550000000000000000000000000060
:20198800070700000000000002000100000000005055550000000000000000000000000034
:2019A800010000000000000002010000000000005055000000000000000000000000000076
:2019C8000504000000000000020001000000000050555500000000000000000000000000F9
:2019E80080000000000000000300000000000000000000000000000000000000000000005C
:201A08000605000000000000020001000000000050555500000000000000000000000000B6
:201A280080000000000000000300000000000000000000000000000000000000000000001B
:201A480003020000000000000200010000000000505555000000000000000000000000007C
:201A680002020000000000000200010000000000505555000000000000000000000000005D
:201A880003020000000000000200010000000000505555000000000000000000000000003C
:201AA80030281A80EA1EE81980AA18A81980CA10681980CA0F2819808A0CC81880CA0A0859
:201AC80018808A08881A80CA06681A808A05481A808A04081A80CA03C819808A0288198064
:201AE8008A01E817808A964819808A8C0819808A78E818808A6EA818808A6A881880CA691B
:0E1B08006818808A684818808A662818808AC3
:203D000012010002FFFFFF40B50420010902010203010A060002000000400100090289007E
:203D200001010080FA0904000001FF000000070586020002000904000101FF000100070549
:203D400082010014010904000201FF00010007058201000C010904000301FF000100070502
:203D600082010004010904000401FF000100070582010004020904000501FF0001000705F5
:203D800082010004030904000601FF000100070582010004040904000701FF0001000705CD
:053DA000820100020495
:203DA6000902390002010080FA0904000001FF000000070586024000000904000101FF004D
:193DC600010007058201FF03010904000201FF00010007058201000201AF
:203DE0000403090416034F00700065006E00480061006E00740065006B000E034400440010
:203E000053003100320030001A03300030003000300030003000300030003000300030008F
:043E2000300000006E
:200AFE0085822CE5272522FDE5283523FE752D02903C00E4F0903C00E060047582002290F5
:200B1E00E678E0FB7A0043038090E678EBF0E030E21090000AC006C005121576D005D00606
:200B3E0080D3E52C25E0FB90E679F090E678E020E006903C00E060F3903C00E0600475827A
:200B5E00002290E678E020E2AC90E678E020E14090E678E0FB43034090E678EBF090E678C4
:200B7E00E030E606903C00E060F3903C00E0600475820022E52D14FB8B2D7003F5822290BE
:200B9E00000AC006C005121576D005D006020B137A007B00C3EA9DEB9E4003020C48C3EA2C
:200BBE009522EB95235016EA2524F8EB3525F9AC26888289838CF01216DFFC801DEAC395A8
:200BDE0022F8EB9523F9E82529F8E9352AF9AF2B888289838FF01216DFFC90E679ECF00A8B
:200BFE00BA00010B90E678E020E006903C00E060F3903C00E060047582002290E678E03017
:200C1E00E203020B1390E678E020E18890E678E0FF43074090E678EFF090E678E030E6064C
:200C3E00903C00E060F37582002290E678E0FF43074090E678EFF090E678E030E606903CA4
:200C5E0000E060F3903C00E060047582002275820122858233903C00E4F004B52E0814B56E
:200C7E002F0474018001E4FE903C00E06004758200227C007D0090E678E0FB43038090E624
:200C9E0078EBF0E030E20C90000AC006121576D00680D5E53325E0FB3395E0FA430301902C
:200CBE00E679EBF090E678E020E006903C00E060F3903C00E060047582002290E678E020F2
:200CDE00E2A690E678E020E11E90E678E0FB43034090E678EBF090E678E030E606903C00B3
:200CFE00E060F375820022EE600F90E678E0FB7A0043032090E678EBF090E679E0E4F534DF
:200D1E00F53574012534F8E43535F9C3E8952EE9952F506C90E678E020E006903C00E060C7
:200D3E00F3903C00E060047582002290E678E030E203020C8674022534F8E43535F9E8B557
:200D5E002E13E9B52F0F90E678E0F8790043002090E678E8F0A834A9350534E4B534020529
:200D7E0035AC34AD35E82530F8E93531F9AF3290E679E0FB888289838FF012145B020D20F1
:200D9E0090E678E020E006903C00E060F3903C00E060047582002290E678E030E203020C48
:200DBE008690E678E0FF43074090E678EFF0EC2530FCED3531FDAF3290E679E08C828D8310
:200DDE008FF012145B90E678E030E606903C00E060F3903C00E060047582002275820122C9
:200DFE0085823DE4F541F542AB36AC37C3E5419538E54295394003020E8F7A0090E678E0A7
:200E1E0030E4067A018C078F3EEA04FFEA243EF98B02A702EF04FAEF243EF9AE41AF42053B
:200E3E0041E4B541020542EE253AFEEF353BFFAD3C8E828F838DF01216DFF78A22752300BD
:200E5E0075243E752500752640E4F527F528F529F52AF52B853D82C004C003120AFEE58262
:200E7E00D003D0047003F582220BBB00010C020E0A75820122AF827E0090E678E030E40603
:200E9E007E01AD448D4AEE04FDEE244AF9AE43A7068D2275230075244A752500752640E488
:200EBE00F527F528F529F52AF52B8F82C007120AFEE582D0077003F5822285452E85462F50
:190EDE008547308548318549328F82120C70E5827003F5822275820122D5
:200EF700FB7A20E4FCFDFEFFE5822582F582E58333F583E5F033F5F0EB33FB4017DAE98034
:200F170042E5822582F582E58333F583E5F033F5F0EB33FBEC33FCED33FDEE33FEEF33FF62
:200F3700EC954CED954DEE954EEF954F4013EC954CFCED954DFDEE954EFEEF954FFF43820C
:050F570001DABEEB22EF
:06008800E478FFF6D8FD4C
:200F5C00FCABF0AA83A982749EF582C2D1EC30E716D2D1E9F42401F9EAF43400FAEBF43494
:0D0F7C0000FBECF43400FC1217AD0215CCA4
:200F8900121449C3749E95824039790012176A30D126E9F42401F582EAF43400F583EBF45F
:200FA9003400F5F0ECF43400700AE582458345F0700122E430E70F22EC20E71489828A833F
:1B0FC9008BF02230D10AE4F582F583F5F074802274FFF582F583F5F0747F223B
:1200CE007512007513007514A675153D75161C75173DAB
:200FE40090E6B9E0FF24F45003021112EF240A83F582EF241083F583E4731632124E1212F7
:201004006A127A91B3ED101011101111101110101010121194E582600302112E90E6A0E029
:20102400FF7E0043070190E6A0EFF002112E121228E582600302112E90E6A0E0FF7E0043A1
:20104400070190E6A0EFF002112E1212A3E582600302112E90E6A0E0FF7E0043070190E648
:20106400A0EFF002112E12070CE582600302112E12136402112E1205FBAF8290E740EFF0D9
:2010840090E68AE4F090E68B04F002112E90E6BAE0F5821205FFE582600302112E90E6A084
:2010A400E0FF7E0043070190E6A0EFF002112E90E6BCE0FF754C11754D00754E408F821283
:2010C40005D8E582701190E6A0E0FF7E0043070190E6A0EFF0805390E740E511F090E68A24
:2010E400E4F090E68B04F0804190E6BCE0FF90E6BAE0F5108F821205EDE582702D90E6A00D
:20110400E0FF7E0043070190E6A0EFF0801C90E6B9E0F582120710E582700F90E6A0E0FF08
:201124007E0043070190E6A0EFF090E6A0E0FF43078090E6A0EFF022AF82747F5FFE24F77B
:201144005003021190EE240A83F582EE240D83F583E473696D8090849088908C111111112C
:20116400111111111190E6A022EF30E7067EA27FE680047EA17FE68E828F832290E6A322C6
:2011840090E6A42290E6A52290E6A6229000002290E6B8E0FFBF80028022BF81028008BF69
:2011A4008202803702122090E740E4F090E741F090E68AF090E68B7402F08064E51325E051
:2011C400FFE512420790E740EFF090E741E4F090E68AF090E68B7402F0804590E6BCE0F587
:2011E4008212113CAE82AF838E048F05EE4F7003F582228C828D83E0FC30E0067E017F002B
:2012040080047E007F0090E740EEF090E741E4F090E68AF090E68B7402F080047582002234
:201224007582012290E6B8E0FF6005BF0264801B90E6BAE0FFBF0105751300805E90E6BAF4
:20124400E0FFBF060280547582002290E6BAE0703D90E6BCE0F58212113CAE82AF83E0FD13
:201264005305FE8E828F83EDF090E6BCE0FF30E7098F057E004305108D0753071F90E68374
:20128400EFF07E0043072090E683EFF0800D7582002290E6B9E0F5820207107582012290BC
:2012A400E6B8E0FF6008BF0202802902132C90E6BAE0FFBF020302133590E6BAE0FFBF01AC
:2012C40005751301806B90E6BAE0FFBF060280617582002290E6BAE0704A90E6BCE0F5826E
:2012E40012113CAE82AF83EE4F7003F582228E828F83E0FD7C004305018E828F83EDF0908D
:20130400E6BCE0FF30E7098F057E004305108D0753071F90E683EFF07E0043072090E683F8
:20132400EFF0800D7582002290E6B9E0F58202071075820122AF827E0110AF027E00EF602D
:201344000E75141C75153D7516A675173D800C7514A675153D75161C75173DEE1392AF22BF
:2013640090E6BBE0FFBF01028019BF02028024BF0302802CBF060302141EBF070302142E1E
:2013840002143B7E007F3D90E6B3EFF090E6B47400F02290E6B3E515F090E6B4E514F022BE
:2013A4007DE07E3D7F8090E6BAE0F54C7B008B020BEAB54C0280428D008E018F028D828EB5
:2013C400838FF01216DF28F8E439F9880589068A0774012DF9E43EFA8F0489828A838CF03F
:2013E4001216DFF9B9030280067D007E007F00ED4E6006C3E54C9B50B5ED4E600F8D038E2E
:201404000490E6B3ECF090E6B4EDF02290E6A0E0FF43070190E6A0EFF0227E127F3D90E67D
:20142400B3EFF090E6B47412F02290E6B3E517F090E6B4E516F02290E6A0E0FF4307019038
:05144400E6A0EFF0221C
:200066007900E94400601B7A00901B16780175923CE493F2A308B800020592D9F4DAF275EF
:0200860092FFE7
:12144900AA82AB83A2F73392D1F5826002D2F7ACF022A8
:1B145B0020F71130F6138883A88220F509F6A8837583002280FEF280F5F02290
:203F00000201C1000217E6000217370002026F000201D900020224000217340002156A0049
:203F200002156C0002156D0002156E00021571000217E5000217E700021476000214780055
:203F40000217390002156A000216FB0002173500021736000217380002173A0002176900B8
:203F600002161B0002156A0002156A0002156A0002156B0002156F0002157200021574006F
:203F80000215700002157300021575000215CB000214E70002151200021514000215160024
:183FA0000214E800021513000215150002156900021477000217E400AB
:011476003243
:011477003242
:011478003241
:20147900AAF0FBE582854CF0A4FCADF0E583854CF0A42DFDE435F0FEE582854DF0A42DFD64
:20149900E5F03EFEE433FFEA854CF0A42EFEE5F03FFFE583854DF0A42EFEE5F03FFFE5820A
:2014B900854EF0A42EFEE5F03FFFEB854CF0A42FFFEA854DF0A42FFFE583854EF0A42FFF74
:0E14D900E582854FF0A42F8EF08D838C822249
:0114E70032D2
:0114E80032D1
:20008E007800E84400600A790075923CE4F309D8FC7801E84400600C7901903C00E4F0A306
:0400AE00D8FCD9FAA7
:2014E9007A10E4FBFCE58225E0F582E58333F583EB33FBEC33FCEB954CF5F0EC954D40068F
:09150900FCABF0438201DADD22A3
:0115120032A6
:0115130032A5
:0115140032A4
:0115150032A3
:0115160032A2
:20151700FBC2D530E715D2D5E4C39582F582E49583F583E495F0F5F0E49BFBE54F30E7177C
:20153700B2D5E4C3954CF54CE4954DF54DE4954EF54EE4954FF54FEB120EF730D513FBE42D
:12155700C39582F582E49583F583E495F0F5F0E49B22CE
:01156900324F
:01156A00324E
:01156B00324D
:01156C00324C
:01156D00324B
:01156E00324A
:01156F003249
:011570003248
:011571003247
:011572003246
:011573003245
:011574003244
:011575003243
:20157600AE82AF8390E600E05418C423541F70057CB1FD801C90E600E05418C423541FFB85
:20159600BB01067A617B0180047AC27B028A048B058C4C8D4D154C74FFB54C02154DE54CA5
:1515B600454D70F1EE24FFFAEF34FFFB8A068B07EA4B70DD223F
:0115CB0032ED
:2015CC00B98003EA13B34010EA2401FAE43BFBE43CFC50047C800582BC000EBB000BBA0063
:2015EC0008E4F5F0F583F58222A2D1E582138CF092F78B838A8222E4F583F58275F080F423
:0F160C00A2D11322E4F583F58275F0C0747F221A
:01161B00329C
:20161C0012173B30D502B2D1BF0009BC0003021610021603BC00030215EDE583B4FF0BE528
:20163C0082B4FF030216100215EDE582B4FF03021603C395835007247F400B0215ED24802A
:20165C00145003021603F582C3ED9AEE9BEF9C40111582C3EA33F9EB33FAEC33FBE433FC11
:20167C008005E4CCCBCAF9C08275F019C3E99DEA9EEB9FEC9400D5F002802D400EE99DF9AF
:20169C00EA9EFAEB9FFBEC9400FCC3B3E833F8E58233F582E58333F583C3E933F9EA33FA0F
:2016BC00EB33FBEC33FC80C4B3E4F938FAE43582FBE43583FCD082500405827C801217ADA7
:0316DC000215E410
:0D00590075815B1217E0E58260030200561E
:1C16DF0020F71430F6148883A88220F507E6A88375830022E280F7E49322E0221A
:0116FB0032BC
:2016FC00C2D5E58330E70DD2D5E4C39582F582E49583F583E54D30E70DB2D5E4C3954CF501
:18171C004CE4954DF54D1214E930D50BE4C39582F582E49583F5832277
:011734003282
:011735003281
:011736003280
:01173700327F
:01173800327E
:01173900327D
:01173A00327C
:20173B00AA82AB83A2F73392D1F5826002D2F7ACF0E58124F9F8E6FD08E6FE0886F008E611
:0E175B00A2F73392D5F5836002D2F7AFF022E9
:01176900324D
:20176A006040F82582500274FFF582E824F8501ECCCBCAF9E4CC24F85014CBCAF9E4CB2487
:20178A00F8500BCAF9E4CA24F8500379002224086010F8C3EC13FCEB13FBEA13FAE913F93A
:0317AA00D8F12251
:2017AD007804EC7011E58224F8500AF582E4C9CACBFCD8EF22EC7820058220E713D582013B
:1317CD0022C3E933F9EA33FAEB33FBEC33FCD8EA15822249
:0417E00075820022EC
:0117E40032D2
:0117E50032D1
:0117E60032D0
:0117E70032CF
:00000001FF
