:04000000020059326F
:01000B0032C2
:0100130032BA
:01001B0032B2
:0100230032AA
:03002B0002027B53
:030033000201B215
:01003B003292
:03004300023F0079
:01004B003282
:03005300023F0069
:1C00B200750800750900750A02750B00750CF4750D01750EF4750F01C200C201BD
:0300E000020056C5
:030056000208732A
:2000E300E582FF30E00543B108800353B1F7EF30E40543B101800353B1FE75820122E58205
:20010300FF70407E0EE4FDFC7401B51802801C7402B5180280197405B518028016740AB5F5
:20012300180280137414B5181680107B0280647B0680607B00805C7B0480587B08805475D8
:20014300820022BF01497E307D027401B51802801C7402B51802801B7405B51802801A74AC
:200163000AB5180280197414B5182080187B007C0280207B107C02801A7B007C0080147BBB
:20018300107C00800E7B207C0080087582002275820022EEF4FFE5A05207EE5B4FF5A0ED98
:2001A300F4FFE5B15207ED5C4FF5B175820122C2DC32C0E0C082C083D2005391EF90E65D95
:2001C3007401F0D083D082D0E032C021C0E0C0F0C082C083C007C006C005C004C003C002DF
:2001E300C001C000C0D075D0007582001211AC5391EF90E65D7410F0D0D0D000D001D002B3
:20020300D003D004D005D006D007D083D082D0F0D0E0D02132C021C0E0C0F0C082C083C004
:2002230007C006C005C004C003C002C001C000C0D075D0007582011211AC5391EF90E65D1D
:200243007420F0D0D0D000D001D002D003D004D005D006D007D083D082D0F0D0E0D02132A3
:20026300C0E0C082C083D2015391EF90E65D7408F0D083D082D0E03263B104C2CF32850A80
:2002830018751900905DC012156FAE82AF83AC097D00C3EC9EED64808FF063F08095F040A9
:2002A3000990E640E053E07FF02290E640E043E080F02285820A7401B50A0280057402B596
:2002C3000A18AF0A74072FF50B90E618F090E61AE50BF0120281758201227582002290E66A
:2002E300F574FFF000000000E5BB30E7FB90E6047480F00000000090E618E4F00000000031
:2003030090E61AE4F00000000090E6047402F00000000090E6047406F00000000090E61824
:20032300E50BF00000000090E61AE50BF00000000090E604E4F02290E6F574FFF00000002C
:2003430000E50870057E06FF80047E027F0090E648EEF022D2871202E17EE87F031EBEFF63
:20036300011FEE4F70F7E5BB30E7FB0000000090E6D07428F00000000090E6D1E4F0E5082A
:2003830070057E06FF80047E047F008EBB22AF8290E680E030E7067D1C7E3D80047DA67ED5
:2003A3003DEF75F010A42416FBE435F0FCEB2DFDEC3EFC7E80EFF508703590E612E4F09005
:2003C300E61474E0F090E6E27401F08D828C838EF012155290E625F074012DFAE43CFB8E3A
:2003E300078A828B838FF012155290E624F02290E61274D8F090E614E4F090E6D204F08D4A
:20040300828C838EF012155290E621F00DBD00010C8D828C838EF0121552FF90E6207407CE
:200423005FF08D828C838EF0121552C423541F90E64004F0020281AF827E00EE75F005A421
:20044300FCADF0247BF582ED3419F583E493FBB5070280080EBE19E375820022EC247BFC18
:20046300ED3419FD8C828D83A3A3A3A3E49390E601F08C828D83A3E493FDA3E493FEA3E4E6
:2004830093FF75AF07759DE4759E007C208C031CEB60168D828E838FF0121552FBA3AD8206
:2004A300AE8390E67CEBF080E47F608F061FEE600790E67CE4F080F375820122E582FF70C6
:2004C300087B64FCFDFE02054CEF249B401D8F18751900751A00751B009003E8E4F5F01233
:2004E30012ECAB82AC83ADF0FE805EBF670A7B207C007D007E008051EF243740288F017A57
:2005030000E9249CF9EA34FF8918F5193395E0F51AF51B90000AE4F5F01212ECAB82AC83D4
:20052300ADF0FE80247A00EF2438FFEA34FF8F18F5193395E0F51AF51B900064E4F5F0124D
:2005430012ECAB82AC83ADF0FEC3EB9420EC9400ED9400EE64809480401474A09B74869CC1
:2005630074019D74808EF063F08095F0500475820022751802E4F519F51AF51B8B828C8373
:200583008DF0EEC006C005C004C00312138AA882A983D003D004D005D006880C890D8B824D
:2005A3008C838DF0EE120DCFAC82AD83AEF0FFC004C005C006C00790240075F0F474C91263
:2005C300148FAC82AD83AEF0FFE58124FCF5818C828D838EF0EF120DFCAC82AD838CCA8D97
:2005E300CB75820122AD18AE19AF1A8D828E838FF0E5081212CE75820122E58270068510B4
:200603008212039175820122758200227582012290E6BBE0FE7F0090E6BAE07C004207EC13
:20062300420690E6BFE0FC7D0090E6BEE07A004205EA420490E6A0E020E1F990E6B8E0FBE3
:20064300BB40028073BBC0028003020714ED4C7003020718C374409DE49C50067A407B009E
:2006630080048D028C0390E6A0E020E1F98A457546007547407548E77549008F438E4475E4
:200683008251C007C006C005C004C002120D06D002D004D005D006D00790E68AE4F000008B
:2006A300000090E68BEAF07B00EDC39AFDEC9BFCEA2FFFEB3EFE8095ED4C605990E68BE4EC
:2006C300F090E6A0E020E1F990E68BE0FB8B38753900753A40753BE7753C008F368E3775B4
:2006E3008251C007C006C005C004C003120C71E582D003D004D005D006D0077003F5822220
:200703007A00EB2FFFEA3EFEEDC39BFDEC9AFC80A7758200227582012275820022AF82C0EF
:200723000712033AD00700850C0E850D0FBFE0004015EF2419401090E68AE4F090E68BF014
:2007430090E6A0E020E1F9BFA2028023BFE0028021BFE1028028BFE202802FBFE30280336B
:20076300BFE4028043BFE5028047BFE656804B02061390E740E0F51875820002010190E7AA
:2007830040E0F51875820102010190E740E0F58202043A90E740E0FFBF010900E4F50EF5A4
:2007A3000F1203577582012290E740E0F5820202B690E740E0F5820200E390E740E0F582D8
:2007C3000204BF7582002290E613E4F090E615F0D28790E6C2E4F090E6C37480F090E6C0A8
:2007E300E4F090E6F4F012033A751801758200120101751801758201120101758201120438
:200803003A7582021202B67582000203917E087F3E751806AC181518EC605474022EFBE461
:200823003FFC8B018C02E5182407F582E434E5F583E0F853000F7D00E824F8F582ED3419E0
:20084300F583E49389828A83F074022BFBE43CFC8B068C07E5182407F582E434E5F583E0CE
:20086300C4540F9019F893FD8B828C83F080A52290E600E054E74410F01208101207CAD216
:20088300E890E668E043E008F090E65CE043E001F090E65CE043E010F090E65CE043E02004
:2008A300F090E65CE043E008F0D2DDD2AF75CA3075CBF875C800D2ADD2CA90E680E043E050
:2008C3000AF09005DC1213E990E680E053E0F7F090E672E4F090E671F090E670F075B10914
:2008E300F5A0F58075B6FF75B4FF75B2FF001000028003120E5710010280F390E682E043C6
:20090300E0C0F090E6817401F043870100000000000000E513701C90E682E030E60790E62E
:2009230082E020E0D690E682E030E70790E682E020E1C890E682E030E60790E682E020E018
:200943000E90E682E030E7A690E682E030E19F9000051213E990E680E043E001F090000F3D
:0E0963001213E990E680E053E0FEF00208F186
:20165B000F0E00000000000002000100000000005055550000000000000000000000000055
:20167B00010100000000000002000100000000005055550000000000000000000000000050
:20169B00FAFAFAFAFAF9000002000000000001005055555555555500000000000000000003
:2016BB00FAFAFAFAFAF90000020000000000010050555555555555000000000000000000E3
:2016DB00FAFAF90000000000020000010000000050555555000000000000000000000000B0
:2016FB00C8C8C7000000000002000001000000005055555500000000000000000000000026
:20171B00FAFAF900000000000200000100000000505555550000000000000000000000006F
:20173B00969500000000000002000100000000005055550000000000000000000000000066
:20175B00BBBB000000000000020001000000000050555500000000000000000000000000FB
:20177B0002010000000000000200010000000000505555000000000000000000000000004E
:20179B004B4A0000000000000200010000000000505555000000000000000000000000009C
:2017BB002525000000000000020001000000000050555500000000000000000000000000C7
:2017DB00010000000000000002010000000000005055000000000000000000000000000045
:2017FB001E1D00000000000002000100000000005055550000000000000000000000000096
:20181B000101000000000000020001000000000050555500000000000000000000000000AE
:20183B00252500000000000002000100000000005055550000000000000000000000000046
:20185B00070700000000000002000100000000005055550000000000000000000000000062
:20187B000100000000000000020100000000000050550000000000000000000000000000A4
:20189B00050400000000000002000100000000005055550000000000000000000000000027
:2018BB0080000000000000000300000000000000000000000000000000000000000000008A
:2018DB000605000000000000020001000000000050555500000000000000000000000000E5
:2018FB0080000000000000000300000000000000000000000000000000000000000000004A
:20191B000302000000000000020001000000000050555500000000000000000000000000AA
:20193B0002020000000000000200010000000000505555000000000000000000000000008B
:20195B0003020000000000000200010000000000505555000000000000000000000000006A
:20197B0030FB1880EA1EBB1880AA187B1880CA101B1880CA0FDB17808A0C7B1780CA0A7B8A
:20199B0016808A085B1980CA063B19808A051B19808A04DB1880CA039B18808A025B1880A9
:2019BB008A015B16808AA43B18808A96FB17808A8CBB17808A789B17808A715B1780CA6E1C
:2019DB003B17808A6A1B1780CA69FB16808A68DB16808A67BB1680CA669B16808A3031328D
:0D19FB0033343536373839414243444546D0
:203D000012010002FFFFFF40B50420011002010203010A0600020000004001000902890077
:203D200001010080FA0904000001FF000000070586020002000904000101FF000100070549
:203D400082010014010904000201FF00010007058201000C010904000301FF000100070502
:203D600082010004010904000401FF000100070582010004020904000501FF0001000705F5
:203D800082010004030904000601FF000100070582010004040904000701FF0001000705CD
:053DA000820100020495
:203DA6000902390002010080FA0904000001FF000000070586024000000904000101FF004D
:193DC600010007058201FF03010904000201FF00010007058201000201AF
:203DE0000403090416034F00700065006E00480061006E00740065006B000E034400440010
:203E000053003100320030001A03300030003000300030003000300030003000300030008F
:043E2000300000006E
:2009710085822CE5272522FDE5283523FE752D02903C00E4F0903C00E06004758200229083
:20099100E678E0FB7A0043038090E678EBF0E030E21090000AC006C0051213E9D005D00624
:2009B10080D3E52C25E0FB90E679F090E678E020E006903C00E060F3903C00E06004758209
:2009D100002290E678E020E2AC90E678E020E14090E678E0FB43034090E678EBF090E67853
:2009F100E030E606903C00E060F3903C00E0600475820022E52D14FB8B2D7003F58222904D
:200A1100000AC006C0051213E9D005D0060209867A007B00C3EA9DEB9E4003020ABBC3EA67
:200A31009522EB95235016EA2524F8EB3525F9AC26888289838CF0121552FC801DEAC395C4
:200A510022F8EB9523F9E82529F8E9352AF9AF2B888289838FF0121552FC90E679ECF00AA7
:200A7100BA00010B90E678E020E006903C00E060F3903C00E060047582002290E678E030A5
:200A9100E20302098690E678E020E18890E678E0FF43074090E678EFF090E678E030E6066A
:200AB100903C00E060F37582002290E678E0FF43074090E678EFF090E678E030E606903C33
:200AD10000E060F3903C00E060047582002275820122858233903C00E4F004B52E0814B5FD
:200AF1002F0474018001E4FE903C00E06004758200227C007D0090E678E0FB43038090E6B3
:200B110078EBF0E030E20C90000AC0061213E9D00680D5E53325E0FB3395E0FA4303019049
:200B3100E679EBF090E678E020E006903C00E060F3903C00E060047582002290E678E02080
:200B5100E2A690E678E020E11E90E678E0FB43034090E678EBF090E678E030E606903C0041
:200B7100E060F375820022EE600F90E678E0FB7A0043032090E678EBF090E679E0E4F5346D
:200B9100F53574012534F8E43535F9C3E8952EE9952F506C90E678E020E006903C00E06056
:200BB100F3903C00E060047582002290E678E030E203020AF974022534F8E43535F9E8B575
:200BD1002E13E9B52F0F90E678E0F8790043002090E678E8F0A834A9350534E4B5340205B8
:200BF10035AC34AD35E82530F8E93531F9AF3290E679E0FB888289838FF01212CE020B939E
:200C110090E678E020E006903C00E060F3903C00E060047582002290E678E030E203020AD8
:200C3100F990E678E0FF43074090E678EFF0EC2530FCED3531FDAF3290E679E08C828D832B
:200C51008FF01212CE90E678E030E606903C00E060F3903C00E060047582002275820122E6
:200C710085823DE4F541F542AB36AC37C3E5419538E54295394003020D027A0090E678E0C3
:200C910030E4067A018C078F3EEA04FFEA243EF98B02A702EF04FAEF243EF9AE41AF4205CA
:200CB10041E4B541020542EE253AFEEF353BFFAD3C8E828F838DF0121552F78A22752300DA
:200CD10075243E752500752640E4F527F528F529F52AF52B853D82C004C003120971E5827F
:200CF100D003D0047003F582220BBB00010C020C7D75820122AF827E0090E678E030E40621
:200D11007E01AD448D4AEE04FDEE244AF9AE43A7068D2275230075244A752500752640E416
:200D3100F527F528F529F52AF52B8F82C007120971E582D0077003F5822285452E85462F6C
:190D51008547308548318549328F82120AE3E5827003F5822275820122F2
:200D6A00FB7A20E4FCFDFEFFE5822582F582E58333F583E5F033F5F0EB33FB4017DAE980C2
:200D8A0042E5822582F582E58333F583E5F033F5F0EB33FBEC33FCED33FDEE33FEEF33FFF1
:200DAA00EC9518ED9519EE951AEF951B4013EC9518FCED9519FDEE951AFEEF951BFF43823B
:050DCA0001DABEEB227E
:06008800E478FFF6D8FD4C
:200DCF00FCABF0AA83A982749EF582C2D1EC30E716D2D1E9F42401F9EAF43400FAEBF43423
:0D0DEF0000FBECF43400FC12162002143F4F
:200DFC001212BCC3749E9582403979001215DD30D126E9F42401F582EAF43400F583EBF40C
:200E1C003400F5F0ECF43400700AE582458345F0700122E430E70F22EC20E71489828A83CD
:1B0E3C008BF02230D10AE4F582F583F5F074802274FFF582F583F5F0747F22C9
:1200CE007512007513007514A675153D75161C75173DAB
:200E570090E6B9E0FF24F45003020F85EF240A83F582EF241083F583E47389A585C1858562
:200E7700DD85ED0426600E0E0F0E0F0F0E0F0E0F0F0F121007E5826003020FA190E6A0E038
:200E9700FF7E0043070190E6A0EFF0020FA112109BE5826003020FA190E6A0E0FF7E0043DD
:200EB700070190E6A0EFF0020FA1121116E5826003020FA190E6A0E0FF7E0043070190E683
:200ED700A0EFF0020FA112071CE5826003020FA11211D7020FA112060BAF8290E740EFF083
:200EF70090E68AE4F090E68B04F0020FA190E6BAE0F58212060FE5826003020FA190E6A020
:200F1700E0FF7E0043070190E6A0EFF0020FA190E6BCE0FF751811751900751A408F82123C
:200F370005E8E582701190E6A0E0FF7E0043070190E6A0EFF0805390E740E511F090E68AA2
:200F5700E4F090E68B04F0804190E6BCE0FF90E6BAE0F5108F821205FDE582702D90E6A08B
:200F7700E0FF7E0043070190E6A0EFF0801C90E6B9E0F582120720E582700F90E6A0E0FF87
:200F97007E0043070190E6A0EFF090E6A0E0FF43078090E6A0EFF022AF82747F5FFE24F70A
:200FB7005003021003EE240A83F582EE240D83F583E473DCE0F303F703FB03FF0F0F0F1045
:200FD7000F100F100F90E6A022EF30E7067EA27FE680047EA17FE68E828F832290E6A3225D
:200FF70090E6A42290E6A52290E6A6229000002290E6B8E0FFBF80028022BF81028008BFF8
:201017008202803702109390E740E4F090E741F090E68AF090E68B7402F08064E51325E06E
:20103700FFE512420790E740EFF090E741E4F090E68AF090E68B7402F0804590E6BCE0F515
:2010570082120FAFAE82AF838E048F05EE4F7003F582228C828D83E0FC30E0067E017F0048
:2010770080047E007F0090E740EEF090E741E4F090E68AF090E68B7402F0800475820022C3
:201097007582012290E6B8E0FF6005BF0264801B90E6BAE0FFBF0105751300805E90E6BA83
:2010B700E0FFBF060280547582002290E6BAE0703D90E6BCE0F582120FAFAE82AF83E0FD31
:2010D7005305FE8E828F83EDF090E6BCE0FF30E7098F057E004305108D0753071F90E68303
:2010F700EFF07E0043072090E683EFF0800D7582002290E6B9E0F58202072075820122903B
:20111700E6B8E0FF6008BF0202802902119F90E6BAE0FFBF02030211A890E6BAE0FFBF0158
:2011370005751301806B90E6BAE0FFBF060280617582002290E6BAE0704A90E6BCE0F582FC
:20115700120FAFAE82AF83EE4F7003F582228E828F83E0FD7C004305018E828F83EDF090AA
:20117700E6BCE0FF30E7098F057E004305108D0753071F90E683EFF07E0043072090E68387
:20119700EFF0800D7582002290E6B9E0F58202072075820122AF827E0110AF027E00EF60AC
:2011B7000E75141C75153D7516A675173D800C7514A675153D75161C75173DEE1392AF224E
:2011D70090E6BBE0FFBF01028019BF02028024BF0302802CBF0603021291BF07030212A1CB
:2011F7000212AE7E007F3D90E6B3EFF090E6B47400F02290E6B3E515F090E6B4E514F022DC
:201217007DE07E3D7F8090E6BAE0F5187B008B020BEAB5180280428D008E018F028D828EAB
:20123700838FF012155228F8E439F9880589068A0774012DF9E43EFA8F0489828A838CF05B
:20125700121552F9B9030280067D007E007F00ED4E6006C3E5189B50B5ED4E600F8D038E7E
:201277000490E6B3ECF090E6B4EDF02290E6A0E0FF43070190E6A0EFF0227E127F3D90E60C
:20129700B3EFF090E6B47412F02290E6B3E517F090E6B4E516F02290E6A0E0FF43070190C7
:0512B700E6A0EFF022AB
:200066007900E94400601B7A00901A08780175923CE493F2A308B800020592D9F4DAF275FE
:0200860092FFE7
:1212BC00AA82AB83A2F73392D1F5826002D2F7ACF02237
:1B12CE0020F71130F6138883A88220F509F6A8837583002280FEF280F5F0221F
:203F00000201B500021659000215AA00020263000201CD00020218000215A7000213DD00B4
:203F20000213DF000213E0000213E1000213E4000216580002165A000212E9000212EB00CB
:203F40000215AC000213DD0002156E000215A8000215A9000215AB000215AD000215DC002F
:203F600002148E000213DD000213DD000213DD000213DE000213E2000213E5000213E700E7
:203F80000213E3000213E6000213E80002143E0002135A000213850002138700021389009A
:183FA00002135B0002138600021388000213DC000212EA000216570003
:0112E90032D2
:0112EA0032D1
:0112EB0032D0
:2012EC00AAF0FBE5828518F0A4FCADF0E5838518F0A42DFDE435F0FEE5828519F0A42DFD8F
:20130C00E5F03EFEE433FFEA8518F0A42EFEE5F03FFFE5838519F0A42EFEE5F03FFFE58200
:20132C00851AF0A42EFEE5F03FFFEB8518F0A42FFFEA8519F0A42FFFE583851AF0A42FFFD2
:0E134C00E582851BF0A42F8EF08D838C82220B
:01135A003260
:01135B00325F
:20008E007800E84400600A790075923CE4F309D8FC7801E84400600C7901903C00E4F0A306
:0400AE00D8FCD9FAA7
:20135C007A10E4FBFCE58225E0F582E58333F583EB33FBEC33FCEB9518F5F0EC9519400685
:09137C00FCABF0438201DADD2232
:011385003235
:011386003234
:011387003233
:011388003232
:011389003231
:20138A00FBC2D530E715D2D5E4C39582F582E49583F583E495F0F5F0E49BFBE51B30E7173F
:2013AA00B2D5E4C39518F518E49519F519E4951AF51AE4951BF51BEB120D6A30D513FBE4EA
:1213CA00C39582F582E49583F583E495F0F5F0E49B225D
:0113DC0032DE
:0113DD0032DD
:0113DE0032DC
:0113DF0032DB
:0113E00032DA
:0113E10032D9
:0113E20032D8
:0113E30032D7
:0113E40032D6
:0113E50032D5
:0113E60032D4
:0113E70032D3
:0113E80032D2
:2013E900AE82AF8390E600E05418C423541F70057CB1FD801C90E600E05418C423541FFB14
:20140900BB01067A617B0180047AC27B028A048B058C188D19151874FFB518021519E5186B
:15142900451970F1EE24FFFAEF34FFFB8A068B07EA4B70DD2201
:01143E00327B
:20143F00B98003EA13B34010EA2401FAE43BFBE43CFC50047C800582BC000EBB000BBA00F1
:20145F0008E4F5F0F583F58222A2D1E582138CF092F78B838A8222E4F583F58275F080F4B1
:0F147F00A2D11322E4F583F58275F0C0747F22A9
:01148E00322B
:20148F001215AE30D502B2D1BF0009BC0003021483021476BC0003021460E583B4FF0BE5F2
:2014AF0082B4FF03021483021460E582B4FF03021476C395835007247F400B0214602480F3
:2014CF00145003021476F582C3ED9AEE9BEF9C40111582C3EA33F9EB33FAEC33FBE433FC2F
:2014EF008005E4CCCBCAF9C08275F019C3E99DEA9EEB9FEC9400D5F002802D400EE99DF93E
:20150F00EA9EFAEB9FFBEC9400FCC3B3E833F8E58233F582E58333F583C3E933F9EA33FA9D
:20152F00EB33FBEC33FC80C4B3E4F938FAE43582FBE43583FCD082500405827C80121620C3
:03154F000214572C
:0D00590075814B121653E5826003020056BC
:1C15520020F71430F6148883A88220F507E6A88375830022E280F7E49322E022A8
:01156E00324A
:20156F00C2D5E58330E70DD2D5E4C39582F582E49583F583E51930E70DB2D5E4C39518F5F7
:18158F0018E49519F51912135C30D50BE4C39582F582E49583F5832230
:0115A7003211
:0115A8003210
:0115A900320F
:0115AA00320E
:0115AB00320D
:0115AC00320C
:0115AD00320B
:2015AE00AA82AB83A2F73392D1F5826002D2F7ACF0E58124F9F8E6FD08E6FE0886F008E6A0
:0E15CE00A2F73392D5F5836002D2F7AFF02278
:0115DC0032DC
:2015DD006040F82582500274FFF582E824F8501ECCCBCAF9E4CC24F85014CBCAF9E4CB2416
:2015FD00F8500BCAF9E4CA24F8500379002224086010F8C3EC13FCEB13FBEA13FAE913F9C9
:03161D00D8F122DF
:201620007804EC7011E58224F8500AF582E4C9CACBFCD8EF22EC7820058220E713D58201C9
:1316400022C3E933F9EA33FAEB33FBEC33FCD8EA158222D7
:04165300758200227A
:011657003260
:01165800325F
:01165900325E
:01165A00325D
:00000001FF
