:04000000020059326F
:01000B0032C2
:0100130032BA
:01001B0032B2
:0100230032AA
:03002B0002028747
:030033000201BE09
:01003B003292
:03004300023F0079
:01004B003282
:03005300023F0069
:1C00B200750800750900750A02750B00750CF4750D01750EF4750F01C200C201BD
:0300E000020056C5
:030056000208138A
:2000E300E582FF30E00BADB17E004305088DB1800353B1F7EF30E40BAEB17F004306018ED0
:20010300B1800353B1FE75820122E582FF70407E0EE4FDFC7401B54C02801C7402B54C0280
:2001230080197405B54C028016740AB54C0280137414B54C1680107B0280647B0680607B91
:2001430000805C7B0480587B08805475820022BF01497E307D027401B54C02801C7402B584
:200163004C02801B7405B54C02801A740AB54C0280197414B54C2080187B007C0280207B0E
:20018300107C02801A7B007C0080147B107C00800E7B207C0080087582002275820022EE55
:2001A300F4FFE5A05207EE5B4FF5A0EDF4FFE5B15207ED5C4FF5B175820122C2DC32C0E0A7
:2001C300C082C083D2005391EF90E65D7401F0D083D082D0E032C021C0E0C0F0C082C0837D
:2001E300C007C006C005C004C003C002C001C000C0D075D00075820012125F5391EF90E648
:200203005D7410F0D0D0D000D001D002D003D004D005D006D007D083D082D0F0D0E0D021C8
:2002230032C021C0E0C0F0C082C083C007C006C005C004C003C002C001C000C0D075D000E2
:2002430075820112125F5391EF90E65D7420F0D0D0D000D001D002D003D004D005D006D0C1
:2002630007D083D082D0F0D0E0D02132C0E0C082C083D2015391EF90E65D7408F0D083D00F
:2002830082D0E032C007C006C0D075D000AEB16306048EB1C2CFD0D0D006D00732850A4C9F
:2002A300754D00905DC012143EAE82AF83AC097D00C3EC9EED64808FF063F08095F0400996
:2002C30090E640E053E07FF02290E640E0FF43078090E640EFF02285820A7401B50A0280E4
:2002E300057402B50A18AF0A74072FF50B90E618F090E61AE50BF01202A075820122758293
:20030300002290E6F574FFF000000000E5BB30E7FB90E6047480F00000000090E618E4F078
:200323000000000090E61AE4F00000000090E6047402F00000000090E6047406F000000092
:200343000090E618E50BF00000000090E61AE50BF00000000090E604E4F02290E6F574FF6E
:20036300F000000000E50870057E06FF80047E027F0090E648EEF022D2871203057EE87F0C
:2003830003EE24FFFCEF34FFFD8C068D07EC4D70F0E5BB30E7FB0000000090E6D07428F0E8
:2003A3000000000090E6D1E4F0E50870057E06FF80047E047F008EBB22AF8290E680E03013
:2003C300E7067D1C7E3D80047DA67E3DEF75F010A42416FBE435F0FCEB2DFDEC3EFC7E80FC
:2003E300EFF508703590E612E4F090E61474E0F090E6E27401F08D828C838EF0121421900F
:20040300E625F074012DFAE43CFB8E078A828B838FF012142190E624F02290E61274D8F042
:2004230090E614E4F090E6D204F08D828C838EF012142190E621F00DBD00010C8D828C83C0
:200443008EF0121421FF90E62074075FF08D828C838EF0121421C423541F90E64004F0028C
:2004630002A0AF827E00EE75F005A4FCADF02446F582ED3417F583E493FBB5070280080E3C
:20048300BE16E375820022EC2446FCED3417FD8C828D83A3A3A3A3E49390E601F08C828DDF
:2004A30083A3E493FDA3E493FEA3E493FF75AF07759DE4759E007C208C031CEB60168D8283
:2004C3008E838FF0121421FBA3AD82AE8390E67CEBF080E47F608F061FEE600790E67CE455
:2004E300F080F375820122AF82BF00028064BF0103020581BF020302058FBF050302059D96
:20050300BF0A030205ABBF14030205B9BF32030205C7BF64030205D5BF69028017BF6A0214
:200523008021BF6E02802BBF78028035BF9602803F0205E3750C19750D0075CAC075CB6391
:200543000205E7750C1E750D0075CACB75CB7D0205E7750C32750D0075CAE075CBB1020588
:20056300E7750C64750D0075CAF075CBD80205E7750CFA750D0075CA6075CBF08066750CC2
:20058300F4750D0175CA3075CBF88058750CE8750D0375CA1875CBFC804A750CC4750D0947
:2005A30075CA7075CBFE803C750C88750D1375CA3875CBFF802E750C10750D2775CA9C7503
:2005C300CBFF8020750CA8750D6175CAD875CBFF8012750C50750DC375CAEC75CBFF8004B6
:2005E3007582002275820122AD4CAE4DAF4E8D828E838FF0E50812136F75820122E58270C3
:20060300068510821203BC75820122758200227582012290E6BBE0FE7F0090E6BAE07C0082
:200623004207EC420690E6BFE0FC7D0090E6BEE07A004205EA420490E6A0E020E1F990E641
:20064300B8E0FBBB40028073BBC0028003020717ED4C700302071BC374409DE49C50067AC0
:20066300407B0080048D028C0390E6A0E020E1F98A457546007547407548E77549008F4370
:200683008E44758251C007C006C005C004C002120EA6D002D004D005D006D00790E68AE493
:2006A300F00000000090E68BEAF07B00EDC39AFDEC9BFCEA2FFFEB3EFE8095ED4C60599051
:2006C300E68BE4F090E6A0E020E1F990E68BE0FB8B38753900753A40753BE7753C008F3699
:2006E3008E37758251C007C006C005C004C003120E11E582D003D004D005D006D0077003DD
:20070300F582227A00EB2FFFEA3EFEEDC39BFDEC9AFC80A775820022758201227582002247
:20072300AF82C00712035ED00700850C0E850D0FBFE0004015EF2419401090E68AE4F09060
:20074300E68BF090E6A0E020E1F9BFA2028023BFE0028021BFE1028028BFE202802FBFE3BF
:20076300028033BFE4028043BFE5028047BFE656804B02061690E740E0F54C758200020136
:200783000D90E740E0F54C75820102010D90E740E0F58202046590E740E0FFBF010900E4AD
:2007A300F50EF50F12037B7582012290E740E0F5820202DA90E740E0F5820200E390E740EF
:2007C300E0F5820204EA7582002290E613E4F090E615F0D28790E6C2E4F090E6C37480F05C
:2007E30090E6C0E4F090E6F4F012035E754C0175820012010D754C0175820112010D758275
:20080300011204657582021202DA7582000203BC90E600E054E74410F012092C1207CDD2E6
:20082300E890E668E0FF43070890E668EFF090E65CE0FF43070190E65CEFF0E0FF4307101B
:2008430090E65CEFF0E0FF43072090E65CEFF0E0FF43070890E65CEFF0D2DDD2AF75CA3069
:2008630075CBF875C800D2ADD2CA90E680E043E00AF09005DC1213CA90E680E053E0F7F0A2
:2008830090E672E4F090E671F090E670F075B109F5A0F58075B6FF75B4FF75B2FF0010002B
:2008A300028003120F0A10010280F390E682E043E0C0F090E6817401F0AE877F00430601FA
:2008C3008E8700000000000000E513701C90E682E030E60790E682E020E0D090E682E030D7
:2008E300E70790E682E020E1C290E682E030E60790E682E020E00E90E682E030E7A090E68C
:2009030082E030E1999000051213CA90E680E0FF43070190E680EFF090000F1213CA90E64B
:2009230080E053E0FEF00208A17E087F3E754C30754D31754E32754F33755034755135750C
:200943005236755337755438755539755641755742755843755944755A45755B4674182EE9
:20096300FCE43FFD90E507E0FB5303F0E4C4CBC4540F6BCB540FCB6BCB30E30244F0EB242F
:200983004CF987038C828D83EBF074162EFCE43FFD90E507E0FB53030FEB244CF987038C92
:2009A300828D83EBF074142EFCE43FFD90E508E0FB5303F0E4C4CBC4540F6BCB540FCB6BEE
:2009C300CB30E30244F0EB244CF987038C828D83EBF074122EFCE43FFD90E508E0FB5303AB
:2009E3000FEB244CF987038C828D83EBF074102EFCE43FFD90E509E0FB5303F0E4C4CBC46A
:200A0300540F6BCB540FCB6BCB30E30244F0EB244CF987038C828D83EBF0740E2EFCE43FE7
:200A2300FD90E509E0FB53030FEB244CF987038C828D83EBF0740C2EFCE43FFD90E50AE0F8
:200A4300FB5303F0E4C4CBC4540F6BCB540FCB6BCB30E30244F0EB244CF987038C828D83D9
:200A6300EBF0740A2EFCE43FFD90E50AE0FB53030FEB244CF987038C828D83EBF074082E90
:200A8300FCE43FFD90E50BE0FB5303F0E4C4CBC4540F6BCB540FCB6BCB30E30244F0EB240A
:200AA3004CF987038C828D83EBF074062EFCE43FFD90E50BE0FB53030FEB244CF987038C7D
:200AC300828D83EBF074042EFCE43FFD90E50CE0FB5303F0E4C4CBC4540F6BCB540FCB6BD9
:200AE300CB30E30244F0EB244CF987038C828D83EBF074022EFEE43FFF90E50CE0FD53058E
:0E0B03000FED244CF987058E828F83EDF022D2
:201486000F0E0000000000000200010000000000505555000000000000000000000000002C
:2014A600010100000000000002000100000000005055550000000000000000000000000027
:2014C600FAFAFAFAFAF90000020000000000010050555555555555000000000000000000DA
:2014E600FAFAF90000000000020000010000000050555555000000000000000000000000A7
:20150600C8C8C700000000000200000100000000505555550000000000000000000000001C
:20152600FAFAF9000000000002000001000000005055555500000000000000000000000066
:2015460096950000000000000200010000000000505555000000000000000000000000005D
:20156600020100000000000002000100000000005055550000000000000000000000000065
:201586004B4A000000000000020001000000000050555500000000000000000000000000B3
:2015A6002525000000000000020001000000000050555500000000000000000000000000DE
:2015C60001000000000000000201000000000000505500000000000000000000000000005C
:2015E6001E1D000000000000020001000000000050555500000000000000000000000000AD
:201606000101000000000000020001000000000050555500000000000000000000000000C5
:20162600070700000000000002000100000000005055550000000000000000000000000099
:201646000100000000000000020100000000000050550000000000000000000000000000DB
:2016660005040000000000000200010000000000505555000000000000000000000000005E
:201686008000000000000000030000000000000000000000000000000000000000000000C1
:2016A60006050000000000000200010000000000505555000000000000000000000000001C
:2016C600800000000000000003000000000000000000000000000000000000000000000081
:2016E6000302000000000000020001000000000050555500000000000000000000000000E2
:201706000202000000000000020001000000000050555500000000000000000000000000C2
:201726000302000000000000020001000000000050555500000000000000000000000000A1
:2017460030C61680EA1E861680AA18461680CA10061680CA0FC615808A0C661580CA0AA680
:2017660014808A08261780CA060617808A05E616808A04A61680CA036616808A022616802D
:201786008A018614808A96E615808A8CA615808A788615808A6E4615808A6A261580CA69E0
:0E17A6000615808A68E614808A66C614808A5A
:203D000012010002FFFFFF40B50420010702010203010A0600020000004001000902890080
:203D200001010080FA0904000001FF000000070586020002000904000101FF000100070549
:203D400082010014010904000201FF00010007058201000C010904000301FF000100070502
:203D600082010004010904000401FF000100070582010004020904000501FF0001000705F5
:203D800082010004030904000601FF000100070582010004040904000701FF0001000705CD
:053DA000820100020495
:203DA6000902390002010080FA0904000001FF000000070586024000000904000101FF004D
:193DC600010007058201FF03010904000201FF00010007058201000201AF
:203DE0000403090416034F00700065006E00480061006E00740065006B000E034400440010
:203E000053003100320030001A03300030003000300030003000300030003000300030008F
:043E2000300000006E
:200B110085822CE5272522FDE5283523FE752D02903C00E4F0903C00E060047582002290E1
:200B3100E678E0FB7A0043038090E678EBF0E030E21090000AC006C0051213CAD005D006A1
:200B510080D3E52C25E0FB90E679F090E678E020E006903C00E060F3903C00E06004758267
:200B7100002290E678E020E2AC90E678E020E14090E678E0FB43034090E678EBF090E678B1
:200B9100E030E606903C00E060F3903C00E0600475820022E52D14FB8B2D7003F5822290AB
:200BB100000AC006C0051213CAD005D006020B267A007B00C3EA9DEB9E4003020C5BC3EAA1
:200BD1009522EB95235016EA2524F8EB3525F9AC26888289838CF0121421FC801DEAC39555
:200BF10022F8EB9523F9E82529F8E9352AF9AF2B888289838FF0121421FC90E679ECF00A38
:200C1100BA00010B90E678E020E006903C00E060F3903C00E060047582002290E678E03003
:200C3100E203020B2690E678E020E18890E678E0FF43074090E678EFF090E678E030E60626
:200C5100903C00E060F37582002290E678E0FF43074090E678EFF090E678E030E606903C91
:200C710000E060F3903C00E060047582002275820122858233903C00E4F004B52E0814B55B
:200C91002F0474018001E4FE903C00E06004758200227C007D0090E678E0FB43038090E611
:200CB10078EBF0E030E20C90000AC0061213CAD00680D5E53325E0FB3395E0FA43030190C7
:200CD100E679EBF090E678E020E006903C00E060F3903C00E060047582002290E678E020DF
:200CF100E2A690E678E020E11E90E678E0FB43034090E678EBF090E678E030E606903C00A0
:200D1100E060F375820022EE600F90E678E0FB7A0043032090E678EBF090E679E0E4F534CB
:200D3100F53574012534F8E43535F9C3E8952EE9952F506C90E678E020E006903C00E060B4
:200D5100F3903C00E060047582002290E678E030E203020C9974022534F8E43535F9E8B531
:200D71002E13E9B52F0F90E678E0F8790043002090E678E8F0A834A9350534E4B534020516
:200D910035AC34AD35E82530F8E93531F9AF3290E679E0FB888289838FF012136F020D33B8
:200DB10090E678E020E006903C00E060F3903C00E060047582002290E678E030E203020C35
:200DD1009990E678E0FF43074090E678EFF0EC2530FCED3531FDAF3290E679E08C828D83EA
:200DF1008FF012136F90E678E030E606903C00E060F3903C00E060047582002275820122A3
:200E110085823DE4F541F542AB36AC37C3E5419538E54295394003020EA27A0090E678E080
:200E310030E4067A018C078F3EEA04FFEA243EF98B02A702EF04FAEF243EF9AE41AF420528
:200E510041E4B541020542EE253AFEEF353BFFAD3C8E828F838DF0121421F78A227523006A
:200E710075243E752500752640E4F527F528F529F52AF52B853D82C004C003120B11E5823B
:200E9100D003D0047003F582220BBB00010C020E1D75820122AF827E0090E678E030E406DD
:200EB1007E01AD448D4AEE04FDEE244AF9AE43A7068D2275230075244A752500752640E475
:200ED100F527F528F529F52AF52B8F82C007120B11E582D0077003F5822285452E85462F29
:190EF1008547308548318549328F82120C83E5827003F5822275820122AF
:06008800E478FFF6D8FD4C
:1200CE007512007513007514A675153D75161C75173DAB
:200F0A0090E6B9E0FF24F45003021038EF240A83F582EF241083F583E4733C5838743838C8
:200F2A009038A0B7D9130F0F100F10100F100F0F0F101210BAE582600302105490E6A0E0E1
:200F4A00FF7E0043070190E6A0EFF002105412114EE582600302105490E6A0E0FF7E00430D
:200F6A00070190E6A0EFF00210541211C9E582600302105490E6A0E0FF7E0043070190E6B4
:200F8A00A0EFF002105412071FE582600302105412128A02105412060EAF8290E740EFF0F9
:200FAA0090E68AE4F090E68B04F002105490E6BAE0F582120612E582600302105490E6A001
:200FCA00E0FF7E0043070190E6A0EFF002105490E6BCE0FF754C11754D00754E408F821239
:200FEA0005EBE582701190E6A0E0FF7E0043070190E6A0EFF0805390E740E511F090E68AEC
:20100A00E4F090E68B04F0804190E6BCE0FF90E6BAE0F5108F82120600E582702D90E6A0D3
:20102A00E0FF7E0043070190E6A0EFF0801C90E6B9E0F582120723E582700F90E6A0E0FFD0
:20104A007E0043070190E6A0EFF090E6A0E0FF43078090E6A0EFF022AF82747F5FFE24F756
:20106A0050030210B6EE240A83F582EE240D83F583E4738F93A6B6AAB6AEB6B21010101090
:20108A00101010101090E6A022EF30E7067EA27FE680047EA17FE68E828F832290E6A322A6
:2010AA0090E6A42290E6A52290E6A6229000002290E6B8E0FFBF80028022BF81028008BF44
:2010CA008202803702114690E740E4F090E741F090E68AF090E68B7402F08064E51325E007
:2010EA00FFE512420790E740EFF090E741E4F090E68AF090E68B7402F0804590E6BCE0F562
:20110A0082121062AE82AF838E048F05EE4F7003F582228C828D83E0FC30E0067E017F00E0
:20112A0080047E007F0090E740EEF090E741E4F090E68AF090E68B7402F08004758200220F
:20114A007582012290E6B8E0FF6005BF0264801B90E6BAE0FFBF0105751300805E90E6BACF
:20116A00E0FFBF060280547582002290E6BAE0703D90E6BCE0F582121062AE82AF83E0FDC9
:20118A005305FE8E828F83EDF090E6BCE0FF30E7098F057E004305108D0753071F90E6834F
:2011AA00EFF07E0043072090E683EFF0800D7582002290E6B9E0F582020723758201229084
:2011CA00E6B8E0FF6008BF0202802902125290E6BAE0FFBF020302125B90E6BAE0FFBF013D
:2011EA0005751301806B90E6BAE0FFBF060280617582002290E6BAE0704A90E6BCE0F58249
:20120A00121062AE82AF83EE4F7003F582228E828F83E0FD7C004305018E828F83EDF09042
:20122A00E6BCE0FF30E7098F057E004305108D0753071F90E683EFF07E0043072090E683D3
:20124A00EFF0800D7582002290E6B9E0F58202072375820122AF827E0110AF027E00EF60F5
:20126A000E75141C75153D7516A675173D800C7514A675153D75161C75173DEE1392AF229A
:20128A0090E6BBE0FFBF01028019BF02028024BF0302802CBF0603021344BF0703021354AF
:2012AA000213617E007F3D90E6B3EFF090E6B47400F02290E6B3E515F090E6B4E514F02274
:2012CA007DE07E3D7F8090E6BAE0F54C7B008B020BEAB54C0280428D008E018F028D828E90
:2012EA00838FF012142128F8E439F9880589068A0774012DF9E43EFA8F0489828A838CF0DA
:20130A00121421F9B9030280067D007E007F00ED4E6006C3E54C9B50B5ED4E600F8D038EC8
:20132A000490E6B3ECF090E6B4EDF02290E6A0E0FF43070190E6A0EFF0227E127F3D90E658
:20134A00B3EFF090E6B47412F02290E6B3E517F090E6B4E516F02290E6A0E0FF4307019013
:05136A00E6A0EFF022F7
:200066007900E94400601B7A009017B4780175923CE493F2A308B800020592D9F4DAF27555
:0200860092FFE7
:1B136F0020F71130F6138883A88220F509F6A8837583002280FEF280F5F0227D
:203F00000201C100021484000214790002026F000201D90002022400021476000213BE00DE
:203F20000213C0000213C1000213C2000213C500021483000214850002138A0002138C00B1
:203F400002147B000213BE0002143D00021477000214780002147A0002147C0002147D00DA
:203F6000021420000213BE000213BE000213BE000213BF000213C3000213C6000213C8002E
:203F80000213C4000213C7000213C90002141F0002138D000213B8000213BA000213BC004A
:183FA00002138E000213B9000213BB000213BD0002138B0002148200BE
:01138A003230
:01138B00322F
:01138C00322E
:01138D00322D
:01138E00322C
:20008E007800E84400600A790075923CE4F309D8FC7801E84400600C7901903C00E4F0A306
:0400AE00D8FCD9FAA7
:20138F007A10E4FBFCE58225E0F582E58333F583EB33FBEC33FCEB954CF5F0EC954D4006EA
:0913AF00FCABF0438201DADD22FF
:0113B8003202
:0113B9003201
:0113BA003200
:0113BB0032FF
:0113BC0032FE
:0113BD0032FD
:0113BE0032FC
:0113BF0032FB
:0113C00032FA
:0113C10032F9
:0113C20032F8
:0113C30032F7
:0113C40032F6
:0113C50032F5
:0113C60032F4
:0113C70032F3
:0113C80032F2
:0113C90032F1
:2013CA00AE82AF8390E600E05418C423541F70057CB1FD801C90E600E05418C423541FFB33
:2013EA00BB01067A617B0180047AC27B028A048B058C4C8D4D154C74FFB54C02154DE54C53
:15140A00454D70F1EE24FFFAEF34FFFB8A068B07EA4B70DD22EC
:01141F00329A
:011420003299
:0D00590075815B12147EE582600302005683
:1C14210020F71430F6148883A88220F507E6A88375830022E280F7E49322E022DA
:01143D00327C
:20143E00C2D5E58330E70DD2D5E4C39582F582E49583F583E54D30E70DB2D5E4C3954CF5C1
:18145E004CE4954DF54D12138F30D50BE4C39582F582E49583F5832293
:011476003243
:011477003242
:011478003241
:011479003240
:01147A00323F
:01147B00323E
:01147C00323D
:01147D00323C
:04147E007582002251
:011482003237
:011483003236
:011484003235
:011485003234
:00000001FF
