:04000000020059326F
:01000B0032C2
:0100130032BA
:01001B0032B2
:0100230032AA
:03002B0002028747
:030033000201BE09
:01003B003292
:03004300023F0079
:01004B003282
:03005300023F0069
:1C00B200750800750900750A02750B00750CF4750D01750EF4750F01C200C201BD
:0300E000020056C5
:0300560002083B62
:2000E300E582FF30E00BADB17E004305088DB1800353B1F7EF30E40BAEB17F004306018ED0
:20010300B1800353B1FE75820122E582FF70407E0EE4FDFC7401B54C02801C7402B54C0280
:2001230080197405B54C028016740AB54C0280137414B54C1680107B0280647B0680607B91
:2001430000805C7B0480587B08805475820022BF01497E307D027401B54C02801C7402B584
:200163004C02801B7405B54C02801A740AB54C0280197414B54C2080187B007C0280207B0E
:20018300107C02801A7B007C0080147B107C00800E7B207C0080087582002275820022EE55
:2001A300F4FFE5A05207EE5B4FF5A0EDF4FFE5B15207ED5C4FF5B175820122C2DC32C0E0A7
:2001C300C082C083D2005391EF90E65D7401F0D083D082D0E032C021C0E0C0F0C082C0837D
:2001E300C007C006C005C004C003C002C001C000C0D075D0007582001213745391EF90E632
:200203005D7410F0D0D0D000D001D002D003D004D005D006D007D083D082D0F0D0E0D021C8
:2002230032C021C0E0C0F0C082C083C007C006C005C004C003C002C001C000C0D075D000E2
:200243007582011213745391EF90E65D7420F0D0D0D000D001D002D003D004D005D006D0AB
:2002630007D083D082D0F0D0E0D02132C0E0C082C083D2015391EF90E65D7408F0D083D00F
:2002830082D0E032C007C006C0D075D000AEB16306048EB1C2CFD0D0D006D00732850A4C9F
:2002A300754D00905DC0121737AE82AF83AC097D00C3EC9EED64808FF063F08095F040099A
:2002C30090E640E053E07FF02290E640E0FF43078090E640EFF02285820A7401B50A0280E4
:2002E300057402B50A18AF0A74072FF50B90E618F090E61AE50BF01202A075820122758293
:20030300002290E6F574FFF000000000E5BB30E7FB90E6047480F00000000090E618E4F078
:200323000000000090E61AE4F00000000090E6047402F00000000090E6047406F000000092
:200343000090E618E50BF00000000090E61AE50BF00000000090E604E4F02290E6F574FF6E
:20036300F000000000E50870057E06FF80047E027F0090E648EEF022D2871203057EE87F0C
:2003830003EE24FFFCEF34FFFD8C068D07EC4D70F0E5BB30E7FB0000000090E6D07428F0E8
:2003A3000000000090E6D1E4F0E50870057E06FF80047E047F008EBB22AF8290E680E03013
:2003C300E7067D1C7E3D80047DA67E3DEF75F010A42416FBE435F0FCEB2DFDEC3EFC7E80FC
:2003E300EFF508703590E612E4F090E61474E0F090E6E27401F08D828C838EF012171A9013
:20040300E625F074012DFAE43CFB8E078A828B838FF012171A90E624F02290E61274D8F046
:2004230090E614E4F090E6D204F08D828C838EF012171A90E621F00DBD00010C8D828C83C4
:200443008EF012171AFF90E62074075FF08D828C838EF012171AC423541F90E64004F00294
:2004630002A0AF827E00EE75F005A4FCADF024E3F582ED341AF583E493FBB5070280080E9C
:20048300BE16E375820022EC24E3FCED341AFD8C828D83A3A3A3A3E49390E601F08C828D3F
:2004A30083A3E493FDA3E493FEA3E493FF75AF07759DE4759E007C208C031CEB60168D8283
:2004C3008E838FF012171AFBA3AD82AE8390E67CEBF080E47F608F061FEE600790E67CE459
:2004E300F080F375820122E582FF70087B64FCFDFE020577EF249B401D8F4C754D00754EDF
:2005030000754F009003E8E4F5F01214B4AB82AC83ADF0FE805EBF670A7B207C007D007EDF
:20052300008051EF243740288F017A00E9249CF9EA34FF894CF54D3395E0F54EF54F900096
:200543000AE4F5F01214B4AB82AC83ADF0FE80247A00EF2438FFEA34FF8F4CF54D3395E0AA
:20056300F54EF54F900064E4F5F01214B4AB82AC83ADF0FEC3EB9420EC9400ED9400EE64AE
:20058300809480401474A09B74869C74019D74808EF063F08095F0500475820022754C021F
:2005A300E4F54DF54EF54F8B828C838DF0EEC006C005C004C003121552A882A983D003D080
:2005C30004D005D006880C890D8B828C838DF0EE120F97AC82AD83AEF0FFC004C005C006B6
:2005E300C00790240075F0F474C9121657AC82AD83AEF0FFE58124FCF5818C828D838EF0D5
:20060300EF120FC4AC82AD838CCA8DCB75820122AD4CAE4DAF4E8D828E838FF0E50812143A
:200623009675820122E58270068510821203BC75820122758200227582012290E6BBE0FEE6
:200643007F0090E6BAE07C004207EC420690E6BFE0FC7D0090E6BEE07A004205EA420490EC
:20066300E6A0E020E1F990E6B8E0FBBB40028073BBC002800302073FED4C7003020743C31B
:2006830074409DE49C50067A407B0080048D028C0390E6A0E020E1F98A45754600754740E3
:2006A3007548E77549008F438E44758251C007C006C005C004C002120ECED002D004D005A8
:2006C300D006D00790E68AE4F00000000090E68BEAF07B00EDC39AFDEC9BFCEA2FFFEB3E35
:2006E300FE8095ED4C605990E68BE4F090E6A0E020E1F990E68BE0FB8B38753900753A40F1
:20070300753BE7753C008F368E37758251C007C006C005C004C003120E39E582D003D0047C
:20072300D005D006D0077003F582227A00EB2FFFEA3EFEEDC39BFDEC9AFC80A77582002265
:200743007582012275820022AF82C00712035ED00700850C0E850D0FBFE0004015EF2419C1
:20076300401090E68AE4F090E68BF090E6A0E020E1F9BFA2028023BFE0028021BFE1028007
:2007830028BFE202802FBFE3028033BFE4028043BFE5028047BFE656804B02063E90E740ED
:2007A300E0F54C75820002010D90E740E0F54C75820102010D90E740E0F58202046590E73E
:2007C30040E0FFBF010900E4F50EF50F12037B7582012290E740E0F5820202DA90E740E016
:2007E300F5820200E390E740E0F5820204EA7582002290E613E4F090E615F0D28790E6C21A
:20080300E4F090E6C37480F090E6C0E4F090E6F4F012035E754C0175820012010D754C0172
:2008230075820112010D7582011204657582021202DA7582000203BC90E600E054E74410A6
:20084300F01209541207F5D2E890E668E0FF43070890E668EFF090E65CE0FF43070190E630
:200863005CEFF0E0FF43071090E65CEFF0E0FF43072090E65CEFF0E0FF43070890E65CEF64
:20088300F0D2DDD2AF75CA3075CBF875C800D2ADD2CA90E680E043E00AF09005DC1215B1FA
:2008A30090E680E053E0F7F090E672E4F090E671F090E670F075B109F5A0F58075B6FF7504
:2008C300B4FF75B2FF00100002800312101F10010280F390E682E043E0C0F090E6817401C9
:2008E300F0AE877F004306018E8700000000000000E513701C90E682E030E60790E682E0A1
:2009030020E0D090E682E030E70790E682E020E1C290E682E030E60790E682E020E00E9008
:20092300E682E030E7A090E682E030E1999000051215B190E680E0FF43070190E680EFF0D1
:2009430090000F1215B190E680E053E0FEF00208C97E087F3E754C30754D31754E32754F73
:2009630033755034755135755236755337755438755539755641755742755843755944759C
:200983005A45755B4674182EFCE43FFD90E507E0FB5303F0E4C4CBC4540F6BCB540FCB6BC3
:2009A300CB30E30244F0EB244CF987038C828D83EBF074162EFCE43FFD90E507E0FB5303C8
:2009C3000FEB244CF987038C828D83EBF074142EFCE43FFD90E508E0FB5303F0E4C4CBC487
:2009E300540F6BCB540FCB6BCB30E30244F0EB244CF987038C828D83EBF074122EFCE43F04
:200A0300FD90E508E0FB53030FEB244CF987038C828D83EBF074102EFCE43FFD90E509E016
:200A2300FB5303F0E4C4CBC4540F6BCB540FCB6BCB30E30244F0EB244CF987038C828D83F9
:200A4300EBF0740E2EFCE43FFD90E509E0FB53030FEB244CF987038C828D83EBF0740C2EA9
:200A6300FCE43FFD90E50AE0FB5303F0E4C4CBC4540F6BCB540FCB6BCB30E30244F0EB242B
:200A83004CF987038C828D83EBF0740A2EFCE43FFD90E50AE0FB53030FEB244CF987038C9A
:200AA300828D83EBF074082EFCE43FFD90E50BE0FB5303F0E4C4CBC4540F6BCB540FCB6BF6
:200AC300CB30E30244F0EB244CF987038C828D83EBF074062EFCE43FFD90E50BE0FB5303B3
:200AE3000FEB244CF987038C828D83EBF074042EFCE43FFD90E50CE0FB5303F0E4C4CBC472
:200B0300540F6BCB540FCB6BCB30E30244F0EB244CF987038C828D83EBF074022EFEE43FF0
:160B2300FF90E50CE0FD53050FED244CF987058E828F83EDF022F5
:201823000F0E0000000000000200010000000000505555000000000000000000000000008B
:20184300010100000000000002000100000000005055550000000000000000000000000086
:20186300FAFAFAFAFAF9000002000000000001005055555555555500000000000000000039
:20188300FAFAF9000000000002000001000000005055555500000000000000000000000006
:2018A300C8C8C700000000000200000100000000505555550000000000000000000000007C
:2018C300FAFAF90000000000020000010000000050555555000000000000000000000000C6
:2018E3009695000000000000020001000000000050555500000000000000000000000000BD
:201903000201000000000000020001000000000050555500000000000000000000000000C4
:201923004B4A00000000000002000100000000005055550000000000000000000000000012
:2019430025250000000000000200010000000000505555000000000000000000000000003D
:201963000100000000000000020100000000000050550000000000000000000000000000BB
:201983001E1D0000000000000200010000000000505555000000000000000000000000000C
:2019A300010100000000000002000100000000005055550000000000000000000000000025
:2019C3000707000000000000020001000000000050555500000000000000000000000000F9
:2019E30001000000000000000201000000000000505500000000000000000000000000003B
:201A03000504000000000000020001000000000050555500000000000000000000000000BD
:201A2300800000000000000003000000000000000000000000000000000000000000000020
:201A430006050000000000000200010000000000505555000000000000000000000000007B
:201A63008000000000000000030000000000000000000000000000000000000000000000E0
:201A8300030200000000000002000100000000005055550000000000000000000000000041
:201AA300020200000000000002000100000000005055550000000000000000000000000022
:201AC300030200000000000002000100000000005055550000000000000000000000000001
:201AE30030631A80EA1E231A80AA18E31980CA10A31980CA0F6319808A0C031980CA0A437F
:201B030018808A08C31A80CA06A31A808A05831A808A04431A80CA03031A808A02C31980C5
:201B23008A012318808A968319808A8C4319808A782319808A6EE318808A6AC31880CA697B
:0E1B4300A318808A688318808A666318808AD7
:203D000012010002FFFFFF40B50420010902010203010A060002000000400100090289007E
:203D200001010080FA0904000001FF000000070586020002000904000101FF000100070549
:203D400082010014010904000201FF00010007058201000C010904000301FF000100070502
:203D600082010004010904000401FF000100070582010004020904000501FF0001000705F5
:203D800082010004030904000601FF000100070582010004040904000701FF0001000705CD
:053DA000820100020495
:203DA6000902390002010080FA0904000001FF000000070586024000000904000101FF004D
:193DC600010007058201FF03010904000201FF00010007058201000201AF
:203DE0000403090416034F00700065006E00480061006E00740065006B000E034400440010
:203E000053003100320030001A03300030003000300030003000300030003000300030008F
:043E2000300000006E
:200B390085822CE5272522FDE5283523FE752D02903C00E4F0903C00E060047582002290B9
:200B5900E678E0FB7A0043038090E678EBF0E030E21090000AC006C0051215B1D005D00690
:200B790080D3E52C25E0FB90E679F090E678E020E006903C00E060F3903C00E0600475823F
:200B9900002290E678E020E2AC90E678E020E14090E678E0FB43034090E678EBF090E67889
:200BB900E030E606903C00E060F3903C00E0600475820022E52D14FB8B2D7003F582229083
:200BD900000AC006C0051215B1D005D006020B4E7A007B00C3EA9DEB9E4003020C83C3EA40
:200BF9009522EB95235016EA2524F8EB3525F9AC26888289838CF012171AFC801DEAC39531
:200C190022F8EB9523F9E82529F8E9352AF9AF2B888289838FF012171AFC90E679ECF00A13
:200C3900BA00010B90E678E020E006903C00E060F3903C00E060047582002290E678E030DB
:200C5900E203020B4E90E678E020E18890E678E0FF43074090E678EFF090E678E030E606D6
:200C7900903C00E060F37582002290E678E0FF43074090E678EFF090E678E030E606903C69
:200C990000E060F3903C00E060047582002275820122858233903C00E4F004B52E0814B533
:200CB9002F0474018001E4FE903C00E06004758200227C007D0090E678E0FB43038090E6E9
:200CD90078EBF0E030E20C90000AC0061215B1D00680D5E53325E0FB3395E0FA43030190B6
:200CF900E679EBF090E678E020E006903C00E060F3903C00E060047582002290E678E020B7
:200D1900E2A690E678E020E11E90E678E0FB43034090E678EBF090E678E030E606903C0077
:200D3900E060F375820022EE600F90E678E0FB7A0043032090E678EBF090E679E0E4F534A3
:200D5900F53574012534F8E43535F9C3E8952EE9952F506C90E678E020E006903C00E0608C
:200D7900F3903C00E060047582002290E678E030E203020CC174022534F8E43535F9E8B5E1
:200D99002E13E9B52F0F90E678E0F8790043002090E678E8F0A834A9350534E4B5340205EE
:200DB90035AC34AD35E82530F8E93531F9AF3290E679E0FB888289838FF0121496020D5B40
:200DD90090E678E020E006903C00E060F3903C00E060047582002290E678E030E203020C0D
:200DF900C190E678E0FF43074090E678EFF0EC2530FCED3531FDAF3290E679E08C828D839A
:200E19008FF012149690E678E030E606903C00E060F3903C00E06004758200227582012252
:200E390085823DE4F541F542AB36AC37C3E5419538E54295394003020ECA7A0090E678E030
:200E590030E4067A018C078F3EEA04FFEA243EF98B02A702EF04FAEF243EF9AE41AF420500
:200E790041E4B541020542EE253AFEEF353BFFAD3C8E828F838DF012171AF78A2275230046
:200E990075243E752500752640E4F527F528F529F52AF52B853D82C004C003120B39E582EB
:200EB900D003D0047003F582220BBB00010C020E4575820122AF827E0090E678E030E4068D
:200ED9007E01AD448D4AEE04FDEE244AF9AE43A7068D2275230075244A752500752640E44D
:200EF900F527F528F529F52AF52B8F82C007120B39E582D0077003F5822285452E85462FD9
:190F19008547308548318549328F82120CABE5827003F58222758201225E
:200F3200FB7A20E4FCFDFEFFE5822582F582E58333F583E5F033F5F0EB33FB4017DAE980F8
:200F520042E5822582F582E58333F583E5F033F5F0EB33FBEC33FCED33FDEE33FEEF33FF27
:200F7200EC954CED954DEE954EEF954F4013EC954CFCED954DFDEE954EFEEF954FFF4382D1
:050F920001DABEEB22B4
:06008800E478FFF6D8FD4C
:200F9700FCABF0AA83A982749EF582C2D1EC30E716D2D1E9F42401F9EAF43400FAEBF43459
:0D0FB70000FBECF43400FC1217E8021607F2
:200FC400121484C3749E9582403979001217A530D126E9F42401F582EAF43400F583EBF4AE
:200FE4003400F5F0ECF43400700AE582458345F0700122E430E70F22EC20E71489828A8304
:1B1004008BF02230D10AE4F582F583F5F074802274FFF582F583F5F0747F22FF
:1200CE007512007513007514A675153D75161C75173DAB
:20101F0090E6B9E0FF24F4500302114DEF240A83F582EF241083F583E473516D4D894D4D1E
:20103F00A54DB5CCEE281010111011111011101010111211CFE582600302116990E6A0E015
:20105F00FF7E0043070190E6A0EFF0021169121263E582600302116990E6A0E0FF7E0043B5
:20107F00070190E6A0EFF00211691212DEE582600302116990E6A0E0FF7E0043070190E65C
:20109F00A0EFF0021169120747E582600302116912139F021169120636AF8290E740EFF03B
:2010BF0090E68AE4F090E68B04F002116990E6BAE0F58212063AE582600302116990E6A097
:2010DF00E0FF7E0043070190E6A0EFF002116990E6BCE0FF754C11754D00754E408F82120D
:2010FF000613E582701190E6A0E0FF7E0043070190E6A0EFF0805390E740E511F090E68AAD
:20111F00E4F090E68B04F0804190E6BCE0FF90E6BAE0F5108F82120628E582702D90E6A095
:20113F00E0FF7E0043070190E6A0EFF0801C90E6B9E0F58212074BE582700F90E6A0E0FF92
:20115F007E0043070190E6A0EFF090E6A0E0FF43078090E6A0EFF022AF82747F5FFE24F740
:20117F0050030211CBEE240A83F582EE240D83F583E473A4A8BBCBBFCBC3CBC711111111A3
:20119F00111111111190E6A022EF30E7067EA27FE680047EA17FE68E828F832290E6A3228B
:2011BF0090E6A42290E6A52290E6A6229000002290E6B8E0FFBF80028022BF81028008BF2E
:2011DF008202803702125B90E740E4F090E741F090E68AF090E68B7402F08064E51325E0DB
:2011FF00FFE512420790E740EFF090E741E4F090E68AF090E68B7402F0804590E6BCE0F54C
:20121F0082121177AE82AF838E048F05EE4F7003F582228C828D83E0FC30E0067E017F00B4
:20123F0080047E007F0090E740EEF090E741E4F090E68AF090E68B7402F0800475820022F9
:20125F007582012290E6B8E0FF6005BF0264801B90E6BAE0FFBF0105751300805E90E6BAB9
:20127F00E0FFBF060280547582002290E6BAE0703D90E6BCE0F582121177AE82AF83E0FD9D
:20129F005305FE8E828F83EDF090E6BCE0FF30E7098F057E004305108D0753071F90E68339
:2012BF00EFF07E0043072090E683EFF0800D7582002290E6B9E0F58202074B758201229046
:2012DF00E6B8E0FF6008BF0202802902136790E6BAE0FFBF020302137090E6BAE0FFBF01FB
:2012FF0005751301806B90E6BAE0FFBF060280617582002290E6BAE0704A90E6BCE0F58233
:20131F00121177AE82AF83EE4F7003F582228E828F83E0FD7C004305018E828F83EDF09016
:20133F00E6BCE0FF30E7098F057E004305108D0753071F90E683EFF07E0043072090E683BD
:20135F00EFF0800D7582002290E6B9E0F58202074B75820122AF827E0110AF027E00EF60B7
:20137F000E75141C75153D7516A675173D800C7514A675153D75161C75173DEE1392AF2284
:20139F0090E6BBE0FFBF01028019BF02028024BF0302802CBF0603021459BF07030214696D
:2013BF000214767E007F3D90E6B3EFF090E6B47400F02290E6B3E515F090E6B4E514F02248
:2013DF007DE07E3D7F8090E6BAE0F54C7B008B020BEAB54C0280428D008E018F028D828E7A
:2013FF00838FF012171A28F8E439F9880589068A0774012DF9E43EFA8F0489828A838CF0C8
:20141F0012171AF9B9030280067D007E007F00ED4E6006C3E54C9B50B5ED4E600F8D038EB6
:20143F000490E6B3ECF090E6B4EDF02290E6A0E0FF43070190E6A0EFF0227E127F3D90E642
:20145F00B3EFF090E6B47412F02290E6B3E517F090E6B4E516F02290E6A0E0FF43070190FD
:05147F00E6A0EFF022E1
:200066007900E94400601B7A00901B51780175923CE493F2A308B800020592D9F4DAF275B4
:0200860092FFE7
:12148400AA82AB83A2F73392D1F5826002D2F7ACF0226D
:1B14960020F71130F6138883A88220F509F6A8837583002280FEF280F5F02255
:203F00000201C100021821000217720002026F000201D9000202240002176F000215A5005C
:203F20000215A7000215A8000215A9000215AC0002182000021822000214B1000214B3007B
:203F4000021774000215A50002173600021770000217710002177300021775000217A400DF
:203F6000021656000215A5000215A5000215A5000215A6000215AA000215AD000215AF0097
:203F80000215AB000215AE000215B000021606000215220002154D0002154F00021551004A
:183FA0000215230002154E00021550000215A4000214B20002181F0047
:0114B1003208
:0114B2003207
:0114B3003206
:2014B400AAF0FBE582854CF0A4FCADF0E583854CF0A42DFDE435F0FEE582854DF0A42DFD29
:2014D400E5F03EFEE433FFEA854CF0A42EFEE5F03FFFE583854DF0A42EFEE5F03FFFE582CF
:2014F400854EF0A42EFEE5F03FFFEB854CF0A42FFFEA854DF0A42FFFE583854EF0A42FFF39
:0E151400E582854FF0A42F8EF08D838C82220D
:011522003296
:011523003295
:20008E007800E84400600A790075923CE4F309D8FC7801E84400600C7901903C00E4F0A306
:0400AE00D8FCD9FAA7
:201524007A10E4FBFCE58225E0F582E58333F583EB33FBEC33FCEB954CF5F0EC954D400653
:09154400FCABF0438201DADD2268
:01154D00326B
:01154E00326A
:01154F003269
:011550003268
:011551003267
:20155200FBC2D530E715D2D5E4C39582F582E49583F583E495F0F5F0E49BFBE54F30E71741
:20157200B2D5E4C3954CF54CE4954DF54DE4954EF54EE4954FF54FEB120F3230D513FBE4B6
:12159200C39582F582E49583F583E495F0F5F0E49B2293
:0115A4003214
:0115A5003213
:0115A6003212
:0115A7003211
:0115A8003210
:0115A900320F
:0115AA00320E
:0115AB00320D
:0115AC00320C
:0115AD00320B
:0115AE00320A
:0115AF003209
:0115B0003208
:2015B100AE82AF8390E600E05418C423541F70057CB1FD801C90E600E05418C423541FFB4A
:2015D100BB01067A617B0180047AC27B028A048B058C4C8D4D154C74FFB54C02154DE54C6A
:1515F100454D70F1EE24FFFAEF34FFFB8A068B07EA4B70DD2204
:0116060032B1
:20160700B98003EA13B34010EA2401FAE43BFBE43CFC50047C800582BC000EBB000BBA0027
:2016270008E4F5F0F583F58222A2D1E582138CF092F78B838A8222E4F583F58275F080F4E7
:0F164700A2D11322E4F583F58275F0C0747F22DF
:011656003261
:2016570012177630D502B2D1BF0009BC000302164B02163EBC0003021628E583B4FF0BE500
:2016770082B4FF0302164B021628E582B4FF0302163EC395835007247F400B021628248001
:2016970014500302163EF582C3ED9AEE9BEF9C40111582C3EA33F9EB33FAEC33FBE433FC9B
:2016B7008005E4CCCBCAF9C08275F019C3E99DEA9EEB9FEC9400D5F002802D400EE99DF974
:2016D700EA9EFAEB9FFBEC9400FCC3B3E833F8E58233F582E58333F583C3E933F9EA33FAD4
:2016F700EB33FBEC33FC80C4B3E4F938FAE43582FBE43583FCD082500405827C801217E831
:0317170002161F98
:0D00590075815B12181BE5826003020056E2
:1C171A0020F71430F6148883A88220F507E6A88375830022E280F7E49322E022DE
:011736003280
:20173700C2D5E58330E70DD2D5E4C39582F582E49583F583E54D30E70DB2D5E4C3954CF5C5
:181757004CE4954DF54D12152430D50BE4C39582F582E49583F5832200
:01176F003247
:011770003246
:011771003245
:011772003244
:011773003243
:011774003242
:011775003241
:20177600AA82AB83A2F73392D1F5826002D2F7ACF0E58124F9F8E6FD08E6FE0886F008E6D6
:0E179600A2F73392D5F5836002D2F7AFF022AE
:0117A4003212
:2017A5006040F82582500274FFF582E824F8501ECCCBCAF9E4CC24F85014CBCAF9E4CB244C
:2017C500F8500BCAF9E4CA24F8500379002224086010F8C3EC13FCEB13FBEA13FAE913F9FF
:0317E500D8F12216
:2017E8007804EC7011E58224F8500AF582E4C9CACBFCD8EF22EC7820058220E713D5820100
:1318080022C3E933F9EA33FAEB33FBEC33FCD8EA1582220D
:04181B0075820022B0
:01181F003296
:011820003295
:011821003294
:011822003293
:00000001FF
